:100000000C942A000C9447000C9454090C9447005B
:100010000C9447000C9447000C9474070C94470010
:100020000C9447000C94A0070C9410080C94E4075F
:100030000C945F080C94DE060C9447000C94E906BF
:100040000C94A10B0C9447000C9447000C944700AF
:100050000C94470011241FBECFE5D8E0DEBFCDBF12
:1000600011E0A0E6B0E0E2E6F3E202C005900D92F6
:10007000AC37B107D9F711E0ACE7B1E001C01D9290
:10008000AF38B107E1F70E94D5100C94AF110C9472
:100090000000EF92FF920F931F937B018C0120E0F1
:1000A00030E040E05FE40E94C50388238CF0C80183
:1000B000B70120E030E040E05FE40E94C1010E940F
:1000C000F5039B01AC01205030404040504806C031
:1000D000C801B7010E94F5039B01AC01B901CA0137
:1000E0001F910F91FF90EF900895A0E0B0E0EBE733
:1000F000F0E00C947811DC012B01FA019C91923014
:1001000008F439C1EB018881823008F433C194309E
:1001100069F4843009F02FC111969C91119789815F
:10012000981709F428C1A4E7B0E025C1843009F488
:1001300021C18230A9F4923009F01DC19A01AD01AC
:1001400088E0EA010990AE01E90109929E0181501F
:10015000C1F7E201898111969C918923818308C1AD
:10016000923009F407C112962D903C901397EB0141
:100170008A819B811496AD90BD90CD90DC901797AD
:10018000EC80FD800E811F819101281B390BB90184
:1001900037FF04C066277727621B730B6032710537
:1001A0000CF061C0121613066CF537014801062EDB
:1001B00004C096948794779467940A94D2F721E0C8
:1001C00030E040E050E004C0220F331F441F551FB1
:1001D0006A95D2F721503040404050402E213F21B7
:1001E00040235123211531054105510521F021E01E
:1001F00030E040E050E079018A01E628F72808293C
:1002000019293CC0232BD1F1260E371E350146019A
:10021000062E04C096948794779467940A94D2F734
:1002200021E030E040E050E004C0220F331F441FC3
:10023000551F6A95D2F721503040404050402A2146
:100240003B214C215D21211531054105510521F04E
:1002500021E030E040E050E059016A01A628B728CB
:10026000C828D9280BC0821593052CF01C01AA249C
:10027000BB24650103C0EE24FF24870111969C91E5
:10028000D20111968C91981709F445C0992339F041
:10029000A80197012A193B094C095D0906C0A6016E
:1002A00095012E193F09400B510B57FD08C01182D3
:1002B0003382228224833583468357831DC081E0A5
:1002C00081833382228288279927DC01821B930B4A
:1002D000A40BB50B84839583A683B7830DC0220F2F
:1002E000331F441F551F24833583468357838281E0
:1002F000938101979383828324813581468157813D
:10030000DA01C9010197A109B1098F5F9F4FAF4F72
:10031000BF4328F30BC0918333822282EA0CFB1C7B
:100320000C1D1D1DE482F5820683178383E0808304
:10033000248135814681578157FF1AC0C901AA27F8
:1003400097FDA095BA2F81709070A070B0705695EF
:10035000479537952795822B932BA42BB52B848318
:100360009583A683B7838281938101969383828349
:10037000DF0101C0D201CD01CDB7DEB7E2E10C94BF
:100380009411A0E2B0E0E7ECF1E00C9484116983F1
:100390007A838B839C832D833E834F835887E9E048
:1003A000EE2EF12CEC0EFD1ECE010196B7010E943F
:1003B000E6058E010F5E1F4FCE010596B8010E9423
:1003C000E6058A8991E089278A8BC701B801AE01C9
:1003D000475E5F4F0E9475000E941105A096E6E0FF
:1003E0000C94A011A0E2B0E0E8EFF1E00C948411CD
:1003F00069837A838B839C832D833E834F835887C5
:10040000F9E0EF2EF12CEC0EFD1ECE010196B701A6
:100410000E94E6058E010F5E1F4FCE010596B801C2
:100420000E94E605C701B801AE01475E5F4F0E941A
:1004300075000E941105A096E6E00C94A011A0E2C0
:10044000B0E0E5E2F2E00C94781169837A838B8363
:100450009C832D833E834F835887CE010196BE0136
:10046000675F7F4F0E94E605CE010596BE016F5E75
:100470007F4F0E94E6059985923088F08989823005
:10048000C8F0943019F4823051F404C0843029F457
:10049000923081F484E790E0C6C0923049F420E0C5
:1004A0009A858A89981321E02A87CE010996BBC0D4
:1004B000823049F420E09A858A89981321E02A8BBA
:1004C000CE014196B0C02D843E844F8458886D88FB
:1004D0007E888F88988CEE24FF248701AA24BB2471
:1004E000650140E050E060E070E0E0E0F0E0C10174
:1004F00081709070892BE9F0E60CF71C081D191D1E
:100500009A01AB012A0D3B1D4C1D5D1D80E090E062
:10051000A0E0B0E0E614F7040805190520F481E036
:1005200090E0A0E0B0E0BA01A901480F591F6A1F8E
:100530007B1FAA0CBB1CCC1CDD1C97FE08C081E0F5
:1005400090E0A0E0B0E0A82AB92ACA2ADB2A3196B6
:10055000E032F10549F0660C771C881C991C569412
:10056000479437942794C3CFFA85EA892B893C892D
:100570008B859C85280F391F2E5F3F4F17C0CA01FE
:1005800081709070892B61F016950795F794E79428
:1005900080E090E0A0E0B0E8E82AF92A0A2B1B2BC3
:1005A00076956795579547952F5F3F4F77FDE7CF36
:1005B0000CC0440F551F661F771F17FD4160EE0CDE
:1005C000FF1C001F111F21503040403090E05907A0
:1005D00090E0690790E4790760F32B8F3C8FDB0193
:1005E000CA018F779070A070B07080349105A1051A
:1005F000B10561F447FD0AC0E114F10401051105DC
:1006000029F0405C5F4F6F4F7F4F40781A8EFE1786
:1006100011F081E08A8F4D8F5E8F6F8F78A383E01A
:10062000898FCE0149960E941105A096E2E10C94B3
:100630009411A8E1B0E0EFE1F3E00C94801169833C
:100640007A838B839C832D833E834F835887B9E0C5
:10065000EB2EF12CEC0EFD1ECE010196B7010E948F
:10066000E6058E010F5E1F4FCE010596B8010E9470
:10067000E6052985223008F47EC03989323010F42D
:10068000B8017CC08A859A8989278A87243011F02D
:10069000223031F4231709F06EC064E770E06EC0B9
:1006A000343039F41D861E861F86188A1C861B86E8
:1006B00004C0323021F484E08987B7015FC02B8504
:1006C0003C858B899C89281B390B3C872B87ED84C3
:1006D000FE840F851889AD88BE88CF88D88CEA142F
:1006E000FB040C051D0540F4EE0CFF1C001F111F40
:1006F000215030403C872B8720E030E040E050E044
:1007000080E090E0A0E0B0E460E070E0EA14FB0478
:100710000C051D0540F0282B392B4A2B5B2BEA18C2
:10072000FB080C091D09B695A79597958795EE0CC2
:10073000FF1C001F111F6F5F7F4F6F31710531F775
:10074000DA01C9018F779070A070B0708034910584
:10075000A105B10561F427FD0AC0E114F10401050A
:10076000110529F0205C3F4F4F4F5F4F20782D87B8
:100770003E874F87588BBE01675F7F4FCB010E943A
:1007800011056896EAE00C949C11A8E1B0E0EBEC4E
:10079000F3E00C94841169837A838B839C832D838B
:1007A0003E834F83588789E0E82EF12CEC0EFD1E26
:1007B000CE010196B7010E94E6058E010F5E1F4F24
:1007C000CE010596B8010E94E6058985823040F089
:1007D0008989823028F0C701B8010E945E0601C0F5
:1007E0008FEF6896E6E00C94A011ACE0B0E0EBEF80
:1007F000F3E00C94881169837A838B839C83CE0108
:100800000196BE016B5F7F4F0E94E6058D818230AD
:1008100061F1823050F1843021F48E81882351F1CE
:100820002EC02F81388537FD20C06E812F313105D4
:100830001CF06623F9F023C08EE190E0821B930B3D
:1008400029853A854B855C8504C056954795379533
:1008500027958A95D2F76623B1F05095409530954B
:1008600021953F4F4F4F5F4F0EC020E030E040E0FA
:1008700050E009C02FEF3FEF4FEF5FE704C020E0EB
:1008800030E040E050E8B901CA012C96E2E00C9457
:10089000A411A8E0B0E0EFE4F4E00C9480117B0137
:1008A0008C01611571058105910519F482E0898338
:1008B00060C083E089838EE1C82ED12CDC82CB829C
:1008C000ED82FE820F831887C801B7010E94C2041F
:1008D000FC013197F7FF3BC0222733272E1B3F0B2C
:1008E00057016801022E04C0D694C794B794A79408
:1008F0000A94D2F740E050E060E070E081E090E0E0
:10090000A0E0B0E004C0880F991FAA1FBB1F2A9562
:10091000D2F70197A109B1098E219F21A023B1230C
:100920000097A105B10521F041E050E060E070E0E2
:100930004A295B296C297D294D835E836F837887E3
:100940008EE190E08E1B9F0B9C838B8312C03097AF
:1009500081F00E2E04C0EE0CFF1C001F111F0A9424
:10096000D2F7ED82FE820F831887CE1ADF0ADC826F
:10097000CB821A82CE0101960E9411052896EAE0E8
:100980000C949C11EF92FF920F931F937B018C01AB
:1009900080E0E81680E0F80681E0080780E01807AC
:1009A00088F48FEFE816F1040105110531F028F005
:1009B00088E090E0A0E0B0E017C080E090E0A0E028
:1009C000B0E012C080E0E81680E0F80680E008079A
:1009D00081E0180728F088E190E0A0E0B0E004C0D2
:1009E00080E190E0A0E0B0E020E230E040E050E0C4
:1009F000281B390B4A0B5B0B04C016950795F7941F
:100A0000E7948A95D2F7F701E458FF4F8081281BBD
:100A1000310941095109C9011F910F91FF90EF90D0
:100A20000895DF92EF92FF920F931F93FC01E480F1
:100A3000F58006811781D1808081823048F480E082
:100A400090E0A0E1B0E0E82AF92A0A2B1B2BA5C010
:100A5000843009F49FC0823021F4EE24FF24870102
:100A600005C0E114F1040105110519F4E0E0F0E01E
:100A700096C0628173819FEF623879070CF05BC08A
:100A800022E83FEF261B370B2A3131052CF020E0FE
:100A900030E040E050E02AC0B801A701022E04C0B7
:100AA00076956795579547950A94D2F781E090E03F
:100AB000A0E0B0E004C0880F991FAA1FBB1F2A95B1
:100AC000D2F70197A109B1098E219F21A023B1235B
:100AD0000097A105B10521F081E090E0A0E0B0E031
:100AE0009A01AB01282B392B4A2B5B2BDA01C90168
:100AF0008F779070A070B07080349105A105B1051A
:100B000039F427FF09C0205C3F4F4F4F5F4F04C0AF
:100B1000215C3F4F4F4F5F4FE0E0F0E02030A0E01E
:100B20003A07A0E04A07A0E45A0710F0E1E0F0E03D
:100B300079018A0127C06038710564F5FB01E1582D
:100B4000FF4FD801C7018F779070A070B0708034CC
:100B50009105A105B10539F4E7FE0DC080E490E0F0
:100B6000A0E0B0E004C08FE390E0A0E0B0E0E80EC9
:100B7000F91E0A1F1B1F17FF05C016950795F7944E
:100B8000E794319687E016950795F794E7948A9550
:100B9000D1F705C0EE24FF248701EFEFF0E06E2FC0
:100BA000679566276795902F9F77D794DD24D79414
:100BB0008E2F8695492F462B582F5D29B701CA01E4
:100BC0001F910F91FF90EF90DF900895FC01DB01E2
:100BD000408151812281622F6F7770E0221F22278E
:100BE000221F9381892F880F822B282F30E0991F95
:100BF0009927991F11969C93119721153105A9F5F5
:100C0000411551056105710511F482E037C082E894
:100C10009FEF13969C938E9312979A01AB0167E016
:100C2000220F331F441F551F6A95D1F783E08C9321
:100C30000DC0220F331F441F551F12968D919C919A
:100C40001397019713969C938E931297203080E010
:100C5000380780E0480780E4580758F314962D932E
:100C60003D934D935C93179708952F3F310579F489
:100C7000411551056105710519F484E08C930895BF
:100C800064FF03C081E08C9312C01C9210C02F57E8
:100C9000304013963C932E93129783E08C9387E019
:100CA000440F551F661F771F8A95D1F770641496FD
:100CB0004D935D936D937C93179708951F93DC017B
:100CC000FB019C91923008F447C08081823008F487
:100CD00043C0943051F411961C91843099F5818170
:100CE000682F70E0611B71093FC0843021F09230A1
:100CF00031F48230B9F18181882389F12DC01196B8
:100D00001C9111978230F1F081811817D9F4129655
:100D10002D913C911397828193818217930794F0D0
:100D200028173907BCF014968D919D910D90BC91B8
:100D3000A02D2481358146815781281739074A071C
:100D40005B0718F4112341F00AC082179307A40728
:100D5000B50740F4112319F061E070E005C06FEFB2
:100D60007FEF02C060E070E0CB011F9108955998B9
:100D70005898529886E880BD87E689B9549A539A64
:100D800008955D9BFECF8CB9089520E004C05D9B63
:100D9000FECFECB92F5FFC01E20FF11DE081EE23E5
:100DA000B1F708955F9BFECF8CB10895579A0895CF
:100DB00057980895569A089556980895E0917C01A1
:100DC000F0917D010995089590937D0180937C01B8
:100DD0000895E0917E01F0917F0109950895909327
:100DE0007F0180937E0108958EB58F7E8EBD8FB575
:100DF0008E7F8FBD8FB58D7F8FBD8EB5877F8EBD6A
:100E00008EB581608EBD8EB58D7F8EBD8EB58B7F8C
:100E10008EBD1DBC1CBC17BC16BC0895282F30E02D
:100E2000220F331F442737FD4095542F60E472E4AE
:100E30008FE090E00E945D1137BD26BD0895AF920E
:100E4000BF92CF92DF92EF92FF920F931F93E82E03
:100E500066B577B580E090E00E9449045B016C01C3
:100E6000FF2400E010E0C801B7010E94490420E01F
:100E700030E04AE754E40E9419039B01AC01C6012B
:100E8000B5010E941F020E9449007BBD6ABD1F91EF
:100E90000F91FF90EF90DF90CF90BF90AF900895AB
:100EA000882319F0813041F404C08EB58F7B8EBD4C
:100EB00008958EB580648EBD089517BC16BC089544
:100EC00026B537B5C901089589B7806289BF0895ED
:100ED00089B78F7D89BF089589B7846089BF0895D8
:100EE00089B78B7F89BF08951F920F920FB60F921B
:100EF00011242F933F934F935F936F937F938F931F
:100F00009F93AF93BF93EF93FF93E0918001F09194
:100F100081010995FF91EF91BF91AF919F918F91C1
:100F20007F916F915F914F913F912F910F900FBEE5
:100F30000F901F90189590938101809380010895E0
:100F40001F920F920FB60F9211242F933F934F933E
:100F50005F936F937F938F939F93AF93BF93EF9321
:100F6000FF93E0918201F09183010995FF91EF9148
:100F7000BF91AF919F918F917F916F915F914F91B1
:100F80003F912F910F900FBE0F901F901895909347
:100F9000830180938201089583B7806483BF83B700
:100FA000886083BF83B7806283BF83B78F7E83BF30
:100FB00083B7816083BF83B7826083BF83B78B7F32
:100FC00083BF8FE38CBF08951F920F920FB60F92CD
:100FD00011242F933F934F935F936F937F938F933E
:100FE0009F93AF93BF93EF93FF93E0918401F091B0
:100FF00085010995FF91EF91BF91AF919F918F91DD
:101000007F916F915F914F913F912F910F900FBE04
:101010000F901F90189590938501809384010895F7
:101020001F920F920FB60F9211242F933F934F935D
:101030005F936F937F938F939F93AF93BF93EF9340
:10104000FF93E0918601F09187010995FF91EF915F
:10105000BF91AF919F918F917F916F915F914F91D0
:101060003F912F910F900FBE0F901F901895909366
:101070008701809386010895779BFECF8FB10895F5
:101080008FB9779BFECF8EB18FB108958FB9779BC3
:10109000FECF8EB18FB10895779BFECF8FB10895AB
:1010A0008FB9779BFECF8EB18FB108956F9A089557
:1010B0006F98089590938901809388010895E09135
:1010C0008801F0918901099508951F93182F81E0F7
:1010D00064E040E00E94F2091FB9779BFECF81E0F7
:1010E00064E040E00E94F2091F91089581E065E00C
:1010F00041E00E94810981E066E040E00E948109B0
:1011000081E064E041E00E94810981E067E041E024
:101110000E94810981E064E041E00E94F2096C9A3A
:101120006B986A9A6898699870986E9A6D98089505
:1011300086B7846086BF0998089886B7806486BFA2
:1011400080E280B982B9089586B7806186BF86B78C
:10115000806886BF089586B7816086BF089586B788
:101160008E7F86BF0895CF93DF93EC0186B78068AA
:1011700086BF86B767E00E940B0B8823D1F381B14D
:10118000887F803821F081B1887F803929F486B743
:10119000806486BF83B1888381B1887FDF91CF91DE
:1011A0000895CF93DF93EC0186B7806886BF86B73A
:1011B00067E00E940B0B8823D1F381B1887F8035D3
:1011C00011F483B1888381B1887FDF91CF91089535
:1011D00083B986B7806886BF86B767E00E940B0B2D
:1011E0008823D1F381B1887F0895880F83B9189A35
:1011F00086B78F7D86BF86B7806886BF86B767E073
:101200000E940B0B8823D1F381B1887F0895880F4A
:1012100083B9189886B78F7D86BF86B7806886BFEA
:1012200086B767E00E940B0B8823D1F381B1887FDA
:10123000089586B7806286BF86B7806886BF86B706
:1012400067E00E940B0B8823D1F381B1887F08955A
:1012500086B7806286BF86B7806886BF86B767E03C
:101260000E940B0B8823D1F381B1887F08958FB73B
:1012700080688FBF08958FB78F778FBF089585B728
:101280008B7F85BF85B7886085BF8BB78F778BBF16
:101290008AB780688ABF08958BB780688BBF08952E
:1012A0008BB78F778BBF08951F920F920FB60F9257
:1012B00011242F933F934F935F936F937F938F935B
:1012C0009F93AF93BF93EF93FF93E0918A01F091C7
:1012D0008B010995FF91EF91BF91AF919F918F91F4
:1012E0007F916F915F914F913F912F910F900FBE22
:1012F0000F901F90189590938B0180938A01089509
:1013000008954130B1F5813099F0813030F082306C
:10131000D1F0833009F065C021C02AB381E090E0AC
:1013200002C0880F991F6A95E2F7282B2ABB0895FF
:1013300027B381E090E002C0880F991F6A95E2F719
:10134000282B27BB089524B381E090E002C0880FCA
:10135000991F6A95E2F7282B24BB089521B381E0F9
:1013600090E002C0880F991F6A95E2F7282B21BBF5
:101370000895813099F0813028F08230D9F083309F
:1013800081F524C02AB381E090E002C0880F991F44
:101390006A95E2F7809582238ABB089527B381E09E
:1013A00090E002C0880F991F6A95E2F7809582232A
:1013B00087BB089524B381E090E002C0880F991F95
:1013C0006A95E2F78095822384BB089521B381E07A
:1013D00090E002C0880F991F6A95E2F780958223FA
:1013E00081BB08954130B1F5813099F0813030F002
:1013F0008230D1F0833009F065C021C02BB381E089
:1014000090E002C0880F991F6A95E2F7282B2BBB4A
:10141000089528B381E090E002C0880F991F6A9573
:10142000E2F7282B28BB089525B381E090E002C0A5
:10143000880F991F6A95E2F7282B25BB089522B3E0
:1014400081E090E002C0880F991F6A95E2F7282B8F
:1014500022BB0895813099F0813028F08230D9F094
:10146000833081F524C02BB381E090E002C0880F67
:10147000991F6A95E2F7809582238BBB089528B364
:1014800081E090E002C0880F991F6A95E2F780958D
:10149000822388BB089525B381E090E002C0880FC5
:1014A000991F6A95E2F78095822385BB089522B340
:1014B00081E090E002C0880F991F6A95E2F780955D
:1014C000822382BB0895813091F0813028F08230F0
:1014D000C9F0833061F521C02BB381E090E002C0F8
:1014E000880F991F6A95E2F728272BBB089528B328
:1014F00081E090E002C0880F991F6A95E2F72827E3
:1015000028BB089525B381E090E002C0880F991FA1
:101510006A95E2F7282725BB089522B381E090E081
:1015200002C0880F991F6A95E2F7282722BB089509
:101530006130A9F4813051F0813028F0823049F0D7
:101540008330E9F409C08FEF8ABB08958FEF87BB22
:1015500008958FEF84BB08958FEF81BB089581308C
:1015600049F0813028F0823039F0833041F406C0F0
:101570001ABA089517BA089514BA089511BA0895B9
:10158000813049F0813028F0823039F0833041F4E5
:1015900006C06BBB089568BB089565BB089562BB28
:1015A0000895813061F0813028F0823069F0833015
:1015B000A1F40FC08BB34823462B4BBB089588B3CF
:1015C0004823462B48BB089585B34823462B45BB8B
:1015D000089582B34823462B42BB0895813061F0C1
:1015E000813028F0823069F08330A1F40FC08AB3D3
:1015F0004823462B4BBB089587B34823462B48BB53
:10160000089584B34823462B45BB089581B34823EE
:10161000462B42BB0895282F813049F0813028F0B5
:10162000823039F08330C9F406C029B305C026B32F
:1016300003C023B301C020B381E090E0062E02C0B6
:10164000880F991F0A94E2F730E08223932302C0A7
:10165000959587956A95E2F7089581E090E0062ECA
:1016600002C0880F991F0A94E2F730E08223932387
:1016700002C0959587956A95E2F70895FA01813041
:1016800049F0813028F0823039F0833051F517C0AD
:101690002AB303C027B301C024B381E090E0062E33
:1016A00002C0880F991F0A94E2F730E08223932347
:1016B00002C0959587956A95E2F78083089521B3D6
:1016C00081E090E0062E02C0880F991F0A94E2F78D
:1016D00030E08223932302C0959587956A95E2F7BF
:1016E00080830895339A0895339808953C983B98E1
:1016F0008330C1F0843028F4813071F0823070F48E
:1017000009C08530A1F0853078F0863099F08730B7
:10171000B1F412C03A9809C03A980AC03A98399A76
:1017200038980DC03A9809C03A9A3998F9CF3A9A40
:10173000399804C03A9AF3CF3A9A399A389A369A35
:1017400008951F920F920FB60F9211242F933F937B
:101750004F935F936F937F938F939F93AF93BF93B9
:10176000EF93FF93E0918C01F0918D010995FF912A
:10177000EF91BF91AF919F918F917F916F915F9109
:101780004F913F912F910F900FBE0F901F90189582
:1017900090938D0180938C010895349BFECF81E05E
:1017A00090E00E942F0D24B145B1942F80E030E0ED
:1017B000822B932B0E945E0E08953F983E9A87B12C
:1017C00065E040E00E94F209379A359A329A319AE0
:1017D00030983398349A08951F93162F843029F146
:1017E000853048F48130C1F0813098F08230B9F012
:1017F000833079F517C0873009F1883028F48530B7
:10180000B9F0863031F517C08830D9F0893009F544
:101810001BC081E060E01AC081E061E017C081E098
:1018200062E014C081E063E011C081E064E00EC0BA
:1018300081E065E00BC081E066E008C081E067E020
:1018400005C081E060E102C081E061E148EE0E94F4
:10185000D10A123069F0133018F4113019F505C0AF
:10186000133071F01430F1F413C080E064E002C072
:1018700080E068E043EF0E94D10A81E060E60FC09B
:1018800080E06CE043EF0E94D10A81E060E407C091
:1018900080E06CE043EF0E94D10A81E060E24FE912
:1018A0000E94D10A1F9108950F931F93CF93DF9346
:1018B000EC018A30910520F461E00E94EC0B79C0C4
:1018C00084369105A0F46AE070E00E94271161E07F
:1018D0000E94EC0B00E41FE1C8010197F1F7CE0173
:1018E0006AE070E00E942711862F62E05DC083E00D
:1018F000C83ED80728F5CE016AE070E00E942711A3
:1019000061E00E94EC0B00E41FE1C8010197F1F7D0
:10191000CE016AE070E00E942711CB016AE070E01E
:101920000E94271162E00E94EC0BC8010197F1F7B9
:10193000CE0164E670E00E942711862F63E034C078
:10194000CE016AE070E00E94271161E00E94EC0B7A
:1019500000E41FE1C8010197F1F7CE016AE070E0F1
:101960000E942711CB016AE070E00E94271162E01B
:101970000E94EC0BC8010197F1F7CE0164E670E01C
:101980000E942711CB016AE070E00E94271163E0FA
:101990000E94EC0BC8010197F1F7CE0168EE73E0ED
:1019A0000E942711862F64E00E94EC0BC80101976A
:1019B000F1F7DF91CF911F910F91089580E063E0DF
:1019C00041E00E94810980E062E041E00E948109DB
:1019D00081E065E041E00E94810981E066E041E04C
:1019E0000E94810981E060E041E00E94810981E07C
:1019F00061E041E00E94810981E062E041E00E94F3
:101A0000810981E064E041E00E94810980E063E0B7
:101A100041E00E94F20980E062E041E00E94F209A8
:101A200081E065E041E00E94F20981E066E041E08A
:101A30000E94F20981E060E040E00E94F20981E04A
:101A400061E040E00E94F20981E062E040E00E9433
:101A5000F20981E064E040E00E94F2090895DF921B
:101A6000EF92FF920F931F93D82E80E063E040E047
:101A70000E94F2094D2D441F4427441F81E064E079
:101A80000E94F2090D2D10E0A80140745070E6E0AC
:101A900055954795EA95E1F781E062E00E94F209E9
:101AA000A8014072507075E0559547957A95E1F719
:101AB00081E061E00E94F209A8014071507064E089
:101AC000559547956A95E1F781E060E00E94F2093B
:101AD00080E062E041E00E94F20930E4E32E3FE161
:101AE000F32EC7010197F1F780E062E040E00E9429
:101AF000F209C7010197F1F7A8014870507023E07F
:101B0000559547952A95E1F781E064E00E94F20936
:101B1000A80144705070559547955595479581E0BB
:101B200062E00E94F209027010701595079581E03D
:101B300061E0402F0E94F20981E0D82260E04D2D43
:101B40000E94F20980E062E041E00E94F209C701D0
:101B50000197F1F780E062E040E00E94F209C701DE
:101B60000197F1F71F910F91FF90EF90DF9008958B
:101B7000860F0E942F0D0895DF92EF92FF920F9330
:101B80001F93D82E80E063E041E00E94F2094D2DC2
:101B9000441F4427441F81E064E00E94F2090D2D98
:101BA00010E0A8014074507036E0559547953A957D
:101BB000E1F781E062E00E94F209A80140725070F2
:101BC00025E0559547952A95E1F781E061E00E946F
:101BD000F209A8014071507094E0559547959A9587
:101BE000E1F781E060E00E94F20980E062E041E01C
:101BF0000E94F20980E4E82E8FE1F82EC7010197D8
:101C0000F1F780E062E040E00E94F209C70101972D
:101C1000F1F7A80148705070B3E055954795BA9513
:101C2000E1F781E064E00E94F209A801447050707D
:101C3000559547955595479581E062E00E94F209D8
:101C4000027010701595079581E061E0402F0E94A9
:101C5000F20981E0D82260E04D2D0E94F20980E077
:101C600062E041E00E94F209C7010197F1F780E0CC
:101C700062E040E00E94F209C7010197F1F71F916D
:101C80000F91FF90EF90DF9008950F931F93CF93E4
:101C9000DF938C01862F0E942F0DC0E0D0E0F80169
:101CA000EC0FFD1F80810E94BC0D2196C830D1052C
:101CB000B1F7DF91CF911F910F910895EF92FF92AD
:101CC0000F931F937B018C018AE0E816F104010554
:101CD000110510F48E2DDFC084E6E816F10401052D
:101CE000110550F4C801B7012AE030E040E050E0AF
:101CF0000E943B11822FC3C088EEE81683E0F806ED
:101D000080E0080780E0180750F4C801B70124E616
:101D100030E040E050E00E943B11822F9CC080E107
:101D2000E81687E2F80680E0080780E0180750F41C
:101D3000C801B70128EE33E040E050E00E943B11BB
:101D4000822F75C080EAE81686E8F80681E0080769
:101D500080E0180750F4C801B70120E137E240E005
:101D600050E00E943B11822F4EC080E4E81682E4CE
:101D7000F8068FE0080780E0180750F4C801B701A3
:101D800020EA36E841E050E00E943B11822F27C054
:101D900080E8E81686E9F80688E9080780E0180771
:101DA00008F07CC0C801B70120E432E44FE050E005
:101DB0000E943B11822F805D0E94BC0DC801B701BB
:101DC00020EA36E841E050E00E943B11CA01B90127
:101DD0002AE030E040E050E00E943B11862F805D19
:101DE0000E94BC0DC801B70120E137E240E050E09D
:101DF0000E943B11CA01B9012AE030E040E050E006
:101E00000E943B11862F805D0E94BC0DC801B70166
:101E100028EE33E040E050E00E943B11CA01B901D6
:101E20002AE030E040E050E00E943B11862F805DC8
:101E30000E94BC0DC801B70124E630E040E050E04C
:101E40000E943B11CA01B9012AE030E040E050E0B5
:101E50000E943B11862F805D0E94BC0DC801B70116
:101E60002AE030E040E050E00E943B11CA01B90195
:101E70002AE030E040E050E00E943B11862F805D78
:101E80000E94BC0DC801B7012AE030E040E050E0FC
:101E90000E943B11862F805D0E94BC0D1F910F9107
:101EA000FF90EF9008951F93CF93DF93EC0110E024
:101EB00003C00E94BC0D1F5FFE01E10FF11D808178
:101EC0008823B9F7DF91CF911F910895EF92FF9288
:101ED0000F931F9380E062E041E00E94810980E05F
:101EE00063E041E00E94810981E060E041E00E94FE
:101EF000810981E061E041E00E94810981E062E0C6
:101F000041E00E94810981E064E041E00E94810992
:101F100080E991E020E931E0F9013197F1F701978B
:101F2000D9F781E060E040E00E94F20981E061E0E1
:101F300041E00E94F20981E062E040E00E94F20983
:101F400081E064E040E00E94F20980E062E041E06C
:101F50000E94F20940E4E42E4FE1F42EC7010197FC
:101F6000F1F780E062E040E00E94F209C7010197CA
:101F7000F1F788E20E942F0D00EA1FE0C8010197E7
:101F8000F1F78CE00E942F0DC8010197F1F781E075
:101F90000E942F0DC7010197F1F786E00E942F0DD7
:101FA00080E80E942F0D1F910F91FF90EF900895F0
:101FB0004F925F926F927F928F929F92AF92BF9259
:101FC000CF92DF92EF92FF920F931F93CF93DF9305
:101FD0004C015B016A0100E0C3E0D0E021E0622E29
:101FE000712C95E0492E84E0582EEE24E3940130C4
:101FF000F1F0B3010C2E02C0660F771F0A94E2F7CE
:10200000609583E047E10E94D10A13E0F52CF01AB5
:10201000642D611B82E00E940B0B882331F4F401D4
:102020001083F501F082F601E082115088F70F5F0E
:1020300021960530E1F683E06FEF47E10E94D10A77
:10204000DF91CF911F910F91FF90EF90DF90CF9094
:10205000BF90AF909F908F907F906F905F904F90C8
:10206000089582E065E040E00E94810982E064E03A
:1020700040E00E94810982E063E040E00E94810923
:1020800082E062E040E00E94810982E065E041E098
:102090000E94F20982E064E041E00E94F20982E0DD
:1020A00063E041E00E94F20982E062E041E00E94C8
:1020B000F20983E067E041E00E94810983E066E085
:1020C00041E00E94810983E065E041E00E948109CE
:1020D00083E063E041E00E94810983E067E041E042
:1020E0000E94F20983E066E041E00E94F20983E089
:1020F00065E041E00E94F20983E063E041E00E9474
:10210000F2090895843029F1853048F48130C1F016
:10211000813098F08230B9F0833081F517C0873074
:1021200009F1883028F48530B9F0863039F517C0C8
:102130008830D9F0893011F51DC080E06FE317C0F9
:1021400080E066E014C080E06BE511C080E06FE4E1
:102150000EC080E066E60BC080E06DE608C080E05F
:102160006DE705C080E067E402C080E06FE70E9491
:10217000C00A089580E06FE60E94C00A089580E0DA
:1021800061E00E94980A089581E40E94BC0D8CB120
:102190000E94BC0D089588E40E94BC0D5398539A88
:1021A0000E94DC060E94DA0608951F93DF93CF9306
:1021B000CDB7DEB764970FB6F894DEBF0FBECDBFC4
:1021C0000E94660F0E94B70680E061E00E94980AB4
:1021D00080E065E041E00E94F20980E064E041E0D7
:1021E0000E94F20980E066E041E00E94F209DE010F
:1021F0001196E0E6F0E08CE001900D928150E1F75D
:10220000FE013D9688E0DF011D928A95E9F7CE0137
:1022100001960E94C5060E94D206182F0E94BC0D8E
:10222000113319F480E066E009C0123319F480E03C
:1022300065E004C0133321F480E064E00E94630A87
:102240008AE50E94BC0D81E40E94C106E4CFAA1B6E
:10225000BB1B51E107C0AA1FBB1FA617B70710F091
:10226000A61BB70B881F991F5A95A9F780959095C3
:10227000BC01CD010895A1E21A2EAA1BBB1BFD01D2
:102280000DC0AA1FBB1FEE1FFF1FA217B307E40755
:10229000F50720F0A21BB30BE40BF50B661F771FAD
:1022A000881F991F1A9469F760957095809590958D
:1022B0009B01AC01BD01CF01089597FB092E0526B6
:1022C0000ED057FD04D0D7DF0AD0001C38F450954B
:1022D0004095309521953F4F4F4F5F4F0895F6F74A
:1022E00090958095709561957F4F8F4F9F4F089582
:1022F0002F923F924F925F926F927F928F929F9216
:10230000AF92BF92CF92DF92EF92FF920F931F9303
:10231000CF93DF93CDB7DEB7CA1BDB0B0FB6F894B4
:10232000DEBF0FBECDBF09942A88398848885F84F4
:102330006E847D848C849B84AA84B984C884DF8065
:10234000EE80FD800C811B81AA81B981CE0FD11D49
:102350000FB6F894DEBF0FBECDBFED010895F8941F
:02236000FFCFAD
:102362004869204D6F68616D6564200000000000BF
:102372000000000000000000000000000001020256
:10238200030303030404040404040404050505050B
:1023920005050505050505050505050506060606E7
:1023A20006060606060606060606060606060606CB
:1023B20006060606060606060606060607070707B7
:1023C200070707070707070707070707070707079B
:1023D200070707070707070707070707070707078B
:1023E200070707070707070707070707070707077B
:1023F2000707070707070707070707070808080867
:10240200080808080808080808080808080808084A
:10241200080808080808080808080808080808083A
:10242200080808080808080808080808080808082A
:10243200080808080808080808080808080808081A
:10244200080808080808080808080808080808080A
:1024520008080808080808080808080808080808FA
:1024620008080808080808080808080808080808EA
:0C247200080808080808080808080808FE
:00000001FF
