:100000000C942A000C9447000C94C20A0C944700EC
:100010000C9447000C9447000C942F090C94470053
:100020000C9447000C946E090C94280A0C94E9096E
:100030000C9447000C94C0070C94DE070C94470006
:100040000C9416120C9447000C9447000C94470033
:100050000C94470011241FBECFE5D8E0DEBFCDBF12
:1000600011E0A0E6B0E0EEE1F0E502C005900D92EF
:10007000AC37B107D9F711E0ACE7B1E001C01D9290
:10008000A53AB107E1F70E947C270C940D280C9447
:100090000000EF92FF920F931F937B018C0120E0F1
:1000A00030E040E05FE40E94F50388238CF0C80153
:1000B000B70120E030E040E05FE40E94C1010E940F
:1000C00055049B01AC01205030404040504806C0D0
:1000D000C801B7010E9455049B01AC01B901CA01D6
:1000E0001F910F91FF90EF900895A0E0B0E0EBE733
:1000F000F0E00C94D627DC012B01FA019C919230A0
:1001000008F439C1EB018881823008F433C194309E
:1001100069F4843009F02FC111969C91119789815F
:10012000981709F428C1A0E6B0E025C1843009F48D
:1001300021C18230A9F4923009F01DC19A01AD01AC
:1001400088E0EA010990AE01E90109929E0181501F
:10015000C1F7E201898111969C918923818308C1AD
:10016000923009F407C112962D903C901397EB0141
:100170008A819B811496AD90BD90CD90DC901797AD
:10018000EC80FD800E811F819101281B390BB90184
:1001900037FF04C066277727621B730B6032710537
:1001A0000CF061C0121613066CF537014801062EDB
:1001B00004C096948794779467940A94D2F721E0C8
:1001C00030E040E050E004C0220F331F441F551FB1
:1001D0006A95D2F721503040404050402E213F21B7
:1001E00040235123211531054105510521F021E01E
:1001F00030E040E050E079018A01E628F72808293C
:1002000019293CC0232BD1F1260E371E350146019A
:10021000062E04C096948794779467940A94D2F734
:1002200021E030E040E050E004C0220F331F441FC3
:10023000551F6A95D2F721503040404050402A2146
:100240003B214C215D21211531054105510521F04E
:1002500021E030E040E050E059016A01A628B728CB
:10026000C828D9280BC0821593052CF01C01AA249C
:10027000BB24650103C0EE24FF24870111969C91E5
:10028000D20111968C91981709F445C0992339F041
:10029000A80197012A193B094C095D0906C0A6016E
:1002A00095012E193F09400B510B57FD08C01182D3
:1002B0003382228224833583468357831DC081E0A5
:1002C00081833382228288279927DC01821B930B4A
:1002D000A40BB50B84839583A683B7830DC0220F2F
:1002E000331F441F551F24833583468357838281E0
:1002F000938101979383828324813581468157813D
:10030000DA01C9010197A109B1098F5F9F4FAF4F72
:10031000BF4328F30BC0918333822282EA0CFB1C7B
:100320000C1D1D1DE482F5820683178383E0808304
:10033000248135814681578157FF1AC0C901AA27F8
:1003400097FDA095BA2F81709070A070B0705695EF
:10035000479537952795822B932BA42BB52B848318
:100360009583A683B7838281938101969383828349
:10037000DF0101C0D201CD01CDB7DEB7E2E10C94BF
:10038000F227A0E2B0E0E7ECF1E00C94E227698309
:100390007A838B839C832D833E834F835887E9E048
:1003A000EE2EF12CEC0EFD1ECE010196B7010E943F
:1003B00046068E010F5E1F4FCE010596B8010E94C2
:1003C00046068A8991E089278A8BC701B801AE0168
:1003D000475E5F4F0E9475000E947105A096E6E09F
:1003E0000C94FE27A0E2B0E0E8EFF1E00C94E227E5
:1003F00069837A838B839C832D833E834F835887C5
:10040000F9E0EF2EF12CEC0EFD1ECE010196B701A6
:100410000E9446068E010F5E1F4FCE010596B80161
:100420000E944606C701B801AE01475E5F4F0E94B9
:1004300075000E947105A096E6E00C94FE27A0E2EC
:10044000B0E0E5E2F2E00C94D62769837A838B83EF
:100450009C832D833E834F835887CE010196BE0136
:10046000675F7F4F0E944606CE010596BE016F5E14
:100470007F4F0E9446069985923088F089898230A4
:10048000C8F0943019F4823051F404C0843029F457
:10049000923081F480E690E0C6C0923049F420E0CA
:1004A0009A858A89981321E02A87CE010996BBC0D4
:1004B000823049F420E09A858A89981321E02A8BBA
:1004C000CE014196B0C02D843E844F8458886D88FB
:1004D0007E888F88988CEE24FF248701AA24BB2471
:1004E000650140E050E060E070E0E0E0F0E0C10174
:1004F00081709070892BE9F0E60CF71C081D191D1E
:100500009A01AB012A0D3B1D4C1D5D1D80E090E062
:10051000A0E0B0E0E614F7040805190520F481E036
:1005200090E0A0E0B0E0BA01A901480F591F6A1F8E
:100530007B1FAA0CBB1CCC1CDD1C97FE08C081E0F5
:1005400090E0A0E0B0E0A82AB92ACA2ADB2A3196B6
:10055000E032F10549F0660C771C881C991C569412
:10056000479437942794C3CFFA85EA892B893C892D
:100570008B859C85280F391F2E5F3F4F17C0CA01FE
:1005800081709070892B61F016950795F794E79428
:1005900080E090E0A0E0B0E8E82AF92A0A2B1B2BC3
:1005A00076956795579547952F5F3F4F77FDE7CF36
:1005B0000CC0440F551F661F771F17FD4160EE0CDE
:1005C000FF1C001F111F21503040403090E05907A0
:1005D00090E0690790E4790760F32B8F3C8FDB0193
:1005E000CA018F779070A070B07080349105A1051A
:1005F000B10561F447FD0AC0E114F10401051105DC
:1006000029F0405C5F4F6F4F7F4F40781A8EFE1786
:1006100011F081E08A8F4D8F5E8F6F8F78A383E01A
:10062000898FCE0149960E947105A096E2E10C9453
:10063000F227A8E1B0E0EFE1F3E00C94DE27698354
:100640007A838B839C832D833E834F835887B9E0C5
:10065000EB2EF12CEC0EFD1ECE010196B7010E948F
:1006600046068E010F5E1F4FCE010596B8010E940F
:1006700046062985223008F47EC03989323010F4CC
:10068000B8017CC08A859A8989278A87243011F02D
:10069000223031F4231709F06EC060E670E06EC0BE
:1006A000343039F41D861E861F86188A1C861B86E8
:1006B00004C0323021F484E08987B7015FC02B8504
:1006C0003C858B899C89281B390B3C872B87ED84C3
:1006D000FE840F851889AD88BE88CF88D88CEA142F
:1006E000FB040C051D0540F4EE0CFF1C001F111F40
:1006F000215030403C872B8720E030E040E050E044
:1007000080E090E0A0E0B0E460E070E0EA14FB0478
:100710000C051D0540F0282B392B4A2B5B2BEA18C2
:10072000FB080C091D09B695A79597958795EE0CC2
:10073000FF1C001F111F6F5F7F4F6F31710531F775
:10074000DA01C9018F779070A070B0708034910584
:10075000A105B10561F427FD0AC0E114F10401050A
:10076000110529F0205C3F4F4F4F5F4F20782D87B8
:100770003E874F87588BBE01675F7F4FCB010E943A
:1007800071056896EAE00C94FA27A8E1B0E0EBEC7A
:10079000F3E00C94E22769837A838B839C832D8317
:1007A0003E834F83588789E0E82EF12CEC0EFD1E26
:1007B000CE010196B7010E9446068E010F5E1F4FC3
:1007C000CE010596B8010E9446068985823040F028
:1007D0008989823028F0C701B8010E94BE0601C095
:1007E0008FEF6896E6E00C94FE27A8E1B0E0EBEF0F
:1007F000F3E00C94E22769837A838B839C832D83B7
:100800003E834F83588789E0E82EF12CEC0EFD1EC5
:10081000CE010196B7010E9446068E010F5E1F4F62
:10082000CE010596B8010E9446068985823040F0C7
:100830008989823028F0C701B8010E94BE0601C034
:100840008FEF6896E6E00C94FE27A8E1B0E0EBE2BB
:10085000F4E00C94E22769837A838B839C832D8355
:100860003E834F83588789E0E82EF12CEC0EFD1E65
:10087000CE010196B7010E9446068E010F5E1F4F02
:10088000CE010596B8010E9446068985823040F067
:100890008989823028F0C701B8010E94BE0601C0D4
:1008A00081E06896E6E00C94FE27ACE0B0E0EBE572
:1008B000F4E00C94E62769837A838B839C83CE01D2
:1008C0000196BE016B5F7F4F0E9446068D8182308C
:1008D00061F1823050F1843021F48E81882351F10E
:1008E0002EC02F81388537FD20C06E812F31310514
:1008F0001CF06623F9F023C08EE190E0821B930B7D
:1009000029853A854B855C8504C056954795379572
:1009100027958A95D2F76623B1F05095409530958A
:1009200021953F4F4F4F5F4F0EC020E030E040E039
:1009300050E009C02FEF3FEF4FEF5FE704C020E02A
:1009400030E040E050E8B901CA012C96E2E00C9496
:100950000228A8E0B0E0EFEAF4E00C94DE277B0187
:100960008C01611571058105910519F482E0898377
:1009700060C083E089838EE1C82ED12CDC82CB82DB
:10098000ED82FE820F831887C801B7010E942205FD
:10099000FC013197F7FF3BC0222733272E1B3F0B6B
:1009A00057016801022E04C0D694C794B794A79447
:1009B0000A94D2F740E050E060E070E081E090E01F
:1009C000A0E0B0E004C0880F991FAA1FBB1F2A95A2
:1009D000D2F70197A109B1098E219F21A023B1234C
:1009E0000097A105B10521F041E050E060E070E022
:1009F0004A295B296C297D294D835E836F83788723
:100A00008EE190E08E1B9F0B9C838B8312C03097EE
:100A100081F00E2E04C0EE0CFF1C001F111F0A9463
:100A2000D2F7ED82FE820F831887CE1ADF0ADC82AE
:100A3000CB821A82CE0101960E9471052896EAE0C7
:100A40000C94FA27EF92FF920F931F937B018C0176
:100A500080E0E81680E0F80681E0080780E01807EB
:100A600088F48FEFE816F1040105110531F028F044
:100A700088E090E0A0E0B0E017C080E090E0A0E067
:100A8000B0E012C080E0E81680E0F80680E00807D9
:100A900081E0180728F088E190E0A0E0B0E004C011
:100AA00080E190E0A0E0B0E020E230E040E050E003
:100AB000281B390B4A0B5B0B04C016950795F7945E
:100AC000E7948A95D2F7F701E859FF4F8081281BF8
:100AD000310941095109C9011F910F91FF90EF9010
:100AE0000895DF92EF92FF920F931F93FC01E48031
:100AF000F58006811781D1808081823048F480E0C2
:100B000090E0A0E1B0E0E82AF92A0A2B1B2BA5C04F
:100B1000843009F49FC0823021F4EE24FF24870141
:100B200005C0E114F1040105110519F4E0E0F0E05D
:100B300096C0628173819FEF623879070CF05BC0C9
:100B400022E83FEF261B370B2A3131052CF020E03D
:100B500030E040E050E02AC0B801A701022E04C0F6
:100B600076956795579547950A94D2F781E090E07E
:100B7000A0E0B0E004C0880F991FAA1FBB1F2A95F0
:100B8000D2F70197A109B1098E219F21A023B1239A
:100B90000097A105B10521F081E090E0A0E0B0E070
:100BA0009A01AB01282B392B4A2B5B2BDA01C901A7
:100BB0008F779070A070B07080349105A105B10559
:100BC00039F427FF09C0205C3F4F4F4F5F4F04C0EF
:100BD000215C3F4F4F4F5F4FE0E0F0E02030A0E05E
:100BE0003A07A0E04A07A0E45A0710F0E1E0F0E07D
:100BF00079018A0127C06038710564F5FB01E1586D
:100C0000FF4FD801C7018F779070A070B07080340B
:100C10009105A105B10539F4E7FE0DC080E490E02F
:100C2000A0E0B0E004C08FE390E0A0E0B0E0E80E08
:100C3000F91E0A1F1B1F17FF05C016950795F7948D
:100C4000E794319687E016950795F794E7948A958F
:100C5000D1F705C0EE24FF248701EFEFF0E06E2FFF
:100C6000679566276795902F9F77D794DD24D79453
:100C70008E2F8695492F462B582F5D29B701CA0123
:100C80001F910F91FF90EF90DF900895FC01DB0121
:100C9000408151812281622F6F7770E0221F2227CD
:100CA000221F9381892F880F822B282F30E0991FD4
:100CB0009927991F11969C93119721153105A9F534
:100CC000411551056105710511F482E037C082E8D4
:100CD0009FEF13969C938E9312979A01AB0167E056
:100CE000220F331F441F551F6A95D1F783E08C9361
:100CF0000DC0220F331F441F551F12968D919C91DA
:100D00001397019713969C938E931297203080E04F
:100D1000380780E0480780E4580758F314962D936D
:100D20003D934D935C93179708952F3F310579F4C8
:100D3000411551056105710519F484E08C930895FE
:100D400064FF03C081E08C9312C01C9210C02F5727
:100D5000304013963C932E93129783E08C9387E058
:100D6000440F551F661F771F8A95D1F7706414963C
:100D70004D935D936D937C93179708951F93DC01BA
:100D8000FB019C91923008F447C08081823008F4C6
:100D900043C0943051F411961C91843099F58181AF
:100DA000682F70E0611B71093FC0843021F09230E0
:100DB00031F48230B9F18181882389F12DC01196F7
:100DC0001C9111978230F1F081811817D9F4129695
:100DD0002D913C911397828193818217930794F010
:100DE00028173907BCF014968D919D910D90BC91F8
:100DF000A02D2481358146815781281739074A075C
:100E00005B0718F4112341F00AC082179307A40767
:100E1000B50740F4112319F061E070E005C06FEFF1
:100E20007FEF02C060E070E0CB011F910895DF9377
:100E3000CF93CDB7DEB7ABE2B0E0EBE2F0E080817C
:100E40008D7F8C93ABE2B0E0EBE2F0E080818E7FAF
:100E50008C93EAE2F0E080E88083A0E4B0E0E0E494
:100E6000F0E0808180688C93A0E4B0E0E0E4F0E002
:100E700080818F7B8C93A0E4B0E0E0E4F0E080819F
:100E800080628C93A0E4B0E0E0E4F0E080818061D7
:100E90008C93A0E4B0E0E0E4F0E08081877F8C9365
:100EA000A0E4B0E0E0E4F0E0808184608C93A0E412
:100EB000B0E0E0E4F0E0808182608C93A0E4B0E0F8
:100EC000E0E4F0E080818E7F8C93E9E2F0E083E360
:100ED0008083AAE2B0E0EAE2F0E0808180618C9356
:100EE000AAE2B0E0EAE2F0E0808188608C93CF91E2
:100EF000DF910895DF93CF930F92CDB7DEB789834B
:100F0000EBE2F0E08081882F90E080729070959500
:100F100087959595879595958795959587959595B9
:100F20008795009769F3ECE2F0E089818083ABE27A
:100F3000B0E0EBE2F0E080818F7D8C930F90CF9159
:100F4000DF910895DF93CF93CDB7DEB7EBE2F0E00A
:100F50008081881F8827881F882F90E090700097D5
:100F6000A9F3ECE2F0E0808180939801ABE2B0E07D
:100F7000EBE2F0E080818F778C93CF91DF91089541
:100F8000DF93CF93CDB7DEB7E0917C01F0917D0187
:100F90000995CF91DF910895DF93CF9300D0CDB71E
:100FA000DEB79A83898389819A8190937D018093AA
:100FB0007C010F900F90CF91DF910895DF93CF9335
:100FC000CDB7DEB7E0917E01F0917F010995CF9119
:100FD000DF910895DF93CF9300D0CDB7DEB79A832A
:100FE000898389819A8190937F0180937E010F90FC
:100FF0000F90CF91DF910895DF93CF93CDB7DEB7F8
:10100000AEE4B0E0EEE4F0E080818F7E8C93AFE45C
:10101000B0E0EFE4F0E080818E7F8C93AFE4B0E04D
:10102000EFE4F0E080818D7F8C93AEE4B0E0EEE4FD
:10103000F0E08081877F8C93AEE4B0E0EEE4F0E0F6
:10104000808181608C93AEE4B0E0EEE4F0E08081DA
:101050008D7F8C93AEE4B0E0EEE4F0E080818B7F96
:101060008C93ECE4F0E011821082E6E4F0E011826F
:101070001082CF91DF9108950F931F93DF93CF9349
:101080000F92CDB7DEB7898306E410E08981882FFF
:1010900090E0880F991F9C01442737FD4095542FFD
:1010A00080E492E4AFE0B0E0BC01CD010E94BB2738
:1010B000DA01C901F801918380830F90CF91DF910C
:1010C0001F910F910895CF92DF92EF92FF920F93AD
:1010D0001F93DF93CF930F92CDB7DEB789830F2E87
:1010E000FAE4CF2EDD24F02DE6E4F0E0808191815A
:1010F000CC01A0E0B0E0BC01CD010E94A9047B01BD
:101100008C018981882F90E0A0E0B0E0BC01CD0186
:101110000E94A904DC01CB01BC01CD0120E030E03C
:101120004AE754E40E941903DC01CB019C01AD01A4
:10113000C801B7010E941F02DC01CB01BC01CD0137
:101140000E944900DC01CB01F601918380830F905E
:10115000CF91DF911F910F91FF90EF90DF90CF9093
:101160000895DF93CF9300D00F92CDB7DEB7898378
:101170008981282F30E03B832A838A819B810097D5
:1011800031F02A813B812130310549F00FC0AEE4B6
:10119000B0E0EEE4F0E080818F7B8C9307C0AEE49A
:1011A000B0E0EEE4F0E0808180648C930F900F90CB
:1011B0000F90CF91DF910895DF93CF9300D0CDB7FB
:1011C000DEB79A838983E6E4F0E0118210820F9003
:1011D0000F90CF91DF910895DF93CF93CDB7DEB716
:1011E000E6E4F0E080819181CF91DF910895DF9373
:1011F000CF93CDB7DEB7A9E5B0E0E9E5F0E08081B7
:1012000080628C93CF91DF910895DF93CF93CDB718
:10121000DEB7A9E5B0E0E9E5F0E080818F7D8C9351
:10122000CF91DF910895DF93CF93CDB7DEB7A9E5D6
:10123000B0E0E9E5F0E0808184608C93CF91DF91AC
:101240000895DF93CF93CDB7DEB7A9E5B0E0E9E528
:10125000F0E080818B7F8C93CF91DF9108951F9276
:101260000F920FB60F9211242F933F934F935F93DA
:101270006F937F938F939F93AF93BF93EF93FF935E
:10128000DF93CF93CDB7DEB7E0918001F09181017C
:101290000995CF91DF91FF91EF91BF91AF919F9110
:1012A0008F917F916F915F914F913F912F910F900F
:1012B0000FBE0F901F901895DF93CF9300D0CDB73E
:1012C000DEB79A83898389819A8190938101809383
:1012D00080010F900F90CF91DF9108951F920F9290
:1012E0000FB60F9211242F933F934F935F936F93F9
:1012F0007F938F939F93AF93BF93EF93FF93DF936E
:10130000CF93CDB7DEB7E0918201F09183010995CB
:10131000CF91DF91FF91EF91BF91AF919F918F910D
:101320007F916F915F914F913F912F910F900FBEE1
:101330000F901F901895DF93CF9300D0CDB7DEB7F5
:101340009A83898389819A81909383018093820112
:101350000F900F90CF91DF910895DF93CF93CDB78A
:10136000DEB7A3E5B0E0E3E5F0E0808180648C9334
:10137000A3E5B0E0E3E5F0E0808188608C93A3E52D
:10138000B0E0E3E5F0E0808180628C93A3E5B0E01B
:10139000E3E5F0E080818F7E8C93A3E5B0E0E3E5A8
:1013A000F0E0808181608C93A3E5B0E0E3E5F0E0BC
:1013B000808182608C93A3E5B0E0E3E5F0E080817A
:1013C0008B7F8C93ECE5F0E08FE38083CF91DF910E
:1013D00008951F920F920FB60F9211242F933F93EF
:1013E0004F935F936F937F938F939F93AF93BF932D
:1013F000EF93FF93DF93CF93CDB7DEB7E0918401F6
:10140000F09185010995CF91DF91FF91EF91BF9107
:10141000AF919F918F917F916F915F914F913F918C
:101420002F910F900FBE0F901F901895DF93CF93C1
:1014300000D0CDB7DEB79A83898389819A81909352
:101440008501809384010F900F90CF91DF910895D3
:101450001F920F920FB60F9211242F933F934F9329
:101460005F936F937F938F939F93AF93BF93EF930C
:10147000FF93DF93CF93CDB7DEB7E0918601F09174
:1014800087010995CF91DF91FF91EF91BF91AF91C6
:101490009F918F917F916F915F914F913F912F918C
:1014A0000F900FBE0F901F901895DF93CF9300D031
:1014B000CDB7DEB79A83898389819A81909387011A
:1014C000809386010F900F90CF91DF910895DF9365
:1014D000CF93CDB7DEB7AFE5B0E0EFE5F0E08081C8
:1014E00080688C93CF91DF910895DF93CF93CDB730
:1014F000DEB7AFE5B0E0EFE5F0E080818F778C9369
:10150000CF91DF910895DF93CF93CDB7DEB7A5E5F7
:10151000B0E0E5E5F0E080818B7F8C93A5E5B0E05D
:10152000E5E5F0E0808188608C93ABE5B0E0EBE529
:10153000F0E080818F778C93AAE5B0E0EAE5F0E0F7
:10154000808180688C93CF91DF910895DF93CF9352
:10155000CDB7DEB7ABE5B0E0EBE5F0E080818068C9
:101560008C93CF91DF910895DF93CF93CDB7DEB702
:10157000ABE5B0E0EBE5F0E080818F778C93CF9125
:10158000DF9108951F920F920FB60F9211242F939F
:101590003F934F935F936F937F938F939F93AF93FB
:1015A000BF93EF93FF93DF93CF93CDB7DEB7E09177
:1015B0008801F09189010995CF91DF91FF91EF9119
:1015C000BF91AF919F918F917F916F915F914F915B
:1015D0003F912F910F900FBE0F901F901895DF93A2
:1015E000CF9300D0CDB7DEB79A83898389819A8162
:1015F00090938901809388010F900F90CF91DF9194
:101600000895DF93CF93CDB7DEB783E065E041E087
:101610000E94170B81E063E041E00E94170B83E01A
:1016200066E040E00E94170BCF91DF910895DF93B1
:10163000CF93CDB7DEB727970FB6F894DEBF0FBEB6
:10164000CDBF89836A834B838B81813009F06FC062
:101650008981282F30E03F832E838E819F818130C6
:10166000910549F12E813F81223031052CF48E8184
:101670009F81009761F0CEC02E813F8122303105DD
:1016800071F18E819F8183309105E9F1C3C0AAE396
:10169000B0E0EAE3F0E08081482F8A81282F30E033
:1016A00081E090E0022E02C0880F991F0A94E2F7B1
:1016B000842B8C93AFC0A7E3B0E0E7E3F0E0808138
:1016C000482F8A81282F30E081E090E0022E02C06E
:1016D000880F991F0A94E2F7842B8C939BC0A4E394
:1016E000B0E0E4E3F0E08081482F8A81282F30E0E9
:1016F00081E090E0022E02C0880F991F0A94E2F761
:10170000842B8C9387C0A1E3B0E0E1E3F0E080811B
:10171000482F8A81282F30E081E090E0022E02C01D
:10172000880F991F0A94E2F7842B8C9373C08981E8
:10173000282F30E03D832C838C819D818130910561
:1017400059F12C813D81223031052CF48C819D8111
:10175000009769F05FC02C813D812230310589F10D
:101760008C819D818330910509F440C053C0AAE368
:10177000B0E0EAE3F0E08081482F8A81282F30E052
:1017800081E090E0022E02C0880F991F0A94E2F7D0
:10179000809584238C933EC0A7E3B0E0E7E3F0E0BC
:1017A0008081482F8A81282F30E081E090E0022E4E
:1017B00002C0880F991F0A94E2F7809584238C93C6
:1017C00029C0A4E3B0E0E4E3F0E08081482F8A81FF
:1017D000282F30E081E090E0022E02C0880F991F90
:1017E0000A94E2F7809584238C9314C0A1E3B0E0BF
:1017F000E1E3F0E08081482F8A81282F30E081E00A
:1018000090E0022E02C0880F991F0A94E2F780959B
:1018100084238C9327960FB6F894DEBF0FBECDBFFE
:10182000CF91DF910895DF93CF93CDB7DEB72797A0
:101830000FB6F894DEBF0FBECDBF89836A834B839A
:101840008B81813009F06FC08981282F30E03F8380
:101850002E838E819F818130910549F12E813F81B8
:10186000223031052CF48E819F81009761F0CEC02B
:101870002E813F812230310571F18E819F8183302D
:101880009105E9F1C3C0ABE3B0E0EBE3F0E08081A8
:10189000482F8A81282F30E081E090E0022E02C09C
:1018A000880F991F0A94E2F7842B8C93AFC0A8E3AA
:1018B000B0E0E8E3F0E08081482F8A81282F30E013
:1018C00081E090E0022E02C0880F991F0A94E2F78F
:1018D000842B8C939BC0A5E3B0E0E5E3F0E080812E
:1018E000482F8A81282F30E081E090E0022E02C04C
:1018F000880F991F0A94E2F7842B8C9387C0A2E388
:10190000B0E0E2E3F0E08081482F8A81282F30E0C8
:1019100081E090E0022E02C0880F991F0A94E2F73E
:10192000842B8C9373C08981282F30E03D832C83D6
:101930008C819D818130910559F12C813D8122302E
:1019400031052CF48C819D81009769F05FC02C815A
:101950003D812230310589F18C819D818330910553
:1019600009F440C053C0ABE3B0E0EBE3F0E08081AA
:10197000482F8A81282F30E081E090E0022E02C0BB
:10198000880F991F0A94E2F7809584238C933EC0B8
:10199000A8E3B0E0E8E3F0E08081482F8A81282FB7
:1019A00030E081E090E0022E02C0880F991F0A9477
:1019B000E2F7809584238C9329C0A5E3B0E0E5E3AA
:1019C000F0E08081482F8A81282F30E081E090E08C
:1019D000022E02C0880F991F0A94E2F78095842393
:1019E0008C9314C0A2E3B0E0E2E3F0E08081482FE2
:1019F0008A81282F30E081E090E0022E02C0880F1B
:101A0000991F0A94E2F7809584238C9327960FB64A
:101A1000F894DEBF0FBECDBFCF91DF910895DF9365
:101A2000CF9300D000D0CDB7DEB789836A83898198
:101A3000282F30E03C832B838B819C818130910562
:101A400049F12B813C81223031052CF48B819C8122
:101A5000009761F05AC02B813C812230310571F131
:101A60008B819C8183309105E9F14FC0ABE3B0E0FD
:101A7000EBE3F0E08081482F8A81282F30E081E07D
:101A800090E0022E02C0880F991F0A94E2F7842783
:101A90008C933BC0A8E3B0E0E8E3F0E08081482FFE
:101AA0008A81282F30E081E090E0022E02C0880F6A
:101AB000991F0A94E2F784278C9327C0A5E3B0E02E
:101AC000E5E3F0E08081482F8A81282F30E081E033
:101AD00090E0022E02C0880F991F0A94E2F7842733
:101AE0008C9313C0A2E3B0E0E2E3F0E08081482FE2
:101AF0008A81282F30E081E090E0022E02C0880F1A
:101B0000991F0A94E2F784278C930F900F900F90FF
:101B10000F90CF91DF910895DF93CF9300D000D045
:101B200000D0CDB7DEB789836A838A81813099F589
:101B30008981282F30E03E832D838D819E818130E5
:101B40009105D1F02D813E81223031052CF48D811B
:101B50009E81009761F04DC02D813E81223031057C
:101B600081F08D819E818330910581F042C0EAE34E
:101B7000F0E08FEF80833DC0E7E3F0E08FEF8083FC
:101B800038C0E4E3F0E08FEF808333C0E1E3F0E0BE
:101B90008FEF80832EC08981282F30E03C832B83F8
:101BA0008B819C8181309105C9F02B813C81223051
:101BB00031052CF48B819C81009761F01AC02B8138
:101BC0003C812230310571F08B819C8183309105FD
:101BD00069F00FC0EAE3F0E010820BC0E7E3F0E049
:101BE000108207C0E4E3F0E0108203C0E1E3F0E01C
:101BF000108226960FB6F894DEBF0FBECDBFCF91F0
:101C0000DF910895DF93CF9300D000D0CDB7DEB73A
:101C100089836A838981282F30E03C832B838B81E1
:101C20009C8181309105D1F02B813C81223031059E
:101C30002CF48B819C81009761F01EC02B813C812C
:101C40002230310581F08B819C818330910581F0B8
:101C500013C0EBE3F0E08A8180830EC0E8E3F0E09C
:101C60008A81808309C0E5E3F0E08A81808304C033
:101C7000E2E3F0E08A8180830F900F900F900F9045
:101C8000CF91DF910895DF93CF9300D000D00F92D2
:101C9000CDB7DEB789836A834B838981282F30E0F3
:101CA0003D832C838C819D818130910501F12C81B4
:101CB0003D81223031052CF48C819D81009761F0AB
:101CC00036C02C813D8122303105E1F08C819D812F
:101CD0008330910511F12BC0ABE3B0E0EBE3F0E012
:101CE00090818B8198238A81892B8C9320C0A8E3D3
:101CF000B0E0E8E3F0E090818B8198238A81892B22
:101D00008C9315C0A5E3B0E0E5E3F0E090818B8112
:101D100098238A81892B8C930AC0A2E3B0E0E2E386
:101D2000F0E090818B8198238A81892B8C930F908E
:101D30000F900F900F900F90CF91DF910895DF9348
:101D4000CF9300D000D00F92CDB7DEB789836A83DE
:101D50004B838981282F30E03D832C838C819D81AA
:101D60008130910501F12C813D81223031052CF427
:101D70008C819D81009761F036C02C813D8122309D
:101D80003105E1F08C819D818330910511F12BC0EB
:101D9000ABE3B0E0EAE3F0E090818B8198238A81A5
:101DA000892B8C9320C0A8E3B0E0E7E3F0E09081BA
:101DB0008B8198238A81892B8C9315C0A5E3B0E091
:101DC000E4E3F0E090818B8198238A81892B8C93C6
:101DD0000AC0A2E3B0E0E1E3F0E090818B819823B8
:101DE0008A81892B8C930F900F900F900F900F90FA
:101DF000CF91DF910895DF93CF9300D000D00F9261
:101E0000CDB7DEB78A836B838A81282F30E03D838C
:101E10002C834C815D8141305105B1F18C819D81D4
:101E20008230910534F42C813D812115310571F00A
:101E300085C04C815D814230510509F443C08C81DD
:101E40009D818330910509F45BC078C0E9E3F0E03F
:101E50008081482F50E08B81282F30E081E090E096
:101E600002C0880F991F2A95E2F79A012823392387
:101E70008B81882F90E0A90102C0559547958A95DE
:101E8000E2F7CA01898375C0E6E3F0E08081482F5C
:101E900050E08B81282F30E081E090E002C0880F75
:101EA000991F2A95E2F79A01282339238B81882FDD
:101EB00090E0A90102C0559547958A95E2F7CA01BD
:101EC000898357C0E3E3F0E08081482F50E08B81A5
:101ED000282F30E081E090E002C0880F991F2A95FA
:101EE000E2F79A01282339238B81882F90E0A901FA
:101EF00002C0559547958A95E2F7CA01898339C092
:101F0000E0E3F0E08081482F50E08B81282F30E023
:101F100081E090E002C0880F991F2A95E2F79A01AC
:101F2000282339238B81882F90E0A90102C0559581
:101F300047958A95E2F7CA0189831BC08A81482F99
:101F400050E08B81282F30E081E090E002C0880FC4
:101F5000991F2A95E2F79A01282339238B81882F2C
:101F600090E0A90102C0559547958A95E2F7CA010C
:101F7000898389810F900F900F900F900F90CF91D0
:101F8000DF910895DF93CF9300D000D000D0CDB77C
:101F9000DEB789836A835C834B838981282F30E095
:101FA0003E832D834D815E8141305105C1F18D818C
:101FB0009E818230910534F42D813E8121153105B9
:101FC00071F08CC04D815E814230510509F447C0EB
:101FD0008D819E818330910509F461C07FC0EAE361
:101FE000F0E08081482F50E08A81282F30E081E0A6
:101FF00090E002C0880F991F2A95E2F79A012823E2
:1020000039238A81882F90E0A90102C05595479510
:102010008A95E2F7CA01EB81FC8180835FC0E7E328
:10202000F0E08081482F50E08A81282F30E081E065
:1020300090E002C0880F991F2A95E2F79A012823A1
:1020400039238A81882F90E0A90102C055954795D0
:102050008A95E2F7CA01EB81FC8180833FC0E4E30B
:10206000F0E08081482F50E08A81282F30E081E025
:1020700090E002C0880F991F2A95E2F79A01282361
:1020800039238A81882F90E0A90102C05595479590
:102090008A95E2F7CA01EB81FC8180831FC0E1E3EE
:1020A000F0E08081482F50E08A81282F30E081E0E5
:1020B00090E002C0880F991F2A95E2F79A01282321
:1020C00039238A81882F90E0A90102C05595479550
:1020D0008A95E2F7CA01EB81FC81808326960FB6D0
:1020E000F894DEBF0FBECDBFCF91DF910895DF938F
:1020F000CF93CDB7DEB7A7E2B0E0E7E2F0E08081B2
:102100008F778C93A7E2B0E0E7E2F0E08081806413
:102110008C93E7E2F0E0808165E040E00E94130CE0
:10212000A6E2B0E0E6E2F0E0808180688C93A6E26F
:10213000B0E0E6E2F0E0808180628C93A6E2B0E05D
:10214000E6E2F0E0808184608C93A6E2B0E0E6E213
:10215000F0E0808182608C93A6E2B0E0E6E2F0E0FD
:1021600080818E7F8C93A6E2B0E0E6E2F0E0808191
:10217000877F8C93A6E2B0E0E6E2F0E080818061A8
:102180008C93CF91DF910895DF93CF93CDB7DEB7D6
:10219000A6E2B0E0E6E2F0E0808188608C93CF9127
:1021A000DF910895DF93CF93CDB7DEB7A6E2B0E01D
:1021B000E6E2F0E08081877F8C93CF91DF910895F4
:1021C000DF93CF9300D00F92CDB7DEB78983A7E21C
:1021D000B0E0E7E2F0E080818F7E8C93A7E2B0E090
:1021E000E7E2F0E08081877F8C938981282F30E0BF
:1021F0003B832A838A819B818330910509F470C0D7
:102200002A813B812430310584F48A819B8181308D
:102210009105D1F12A813B81223031050CF04AC071
:102220008A819B810097D1F0C8C02A813B812530EB
:10223000310509F481C08A819B81853091050CF4B8
:1022400065C02A813B812630310509F48BC08A8123
:102250009B818730910509F49BC0AFC0A7E2B0E035
:10226000E7E2F0E080818B7F8C93A7E2B0E0E7E2C9
:10227000F0E080818D7F8C93A7E2B0E0E7E2F0E0B0
:1022800080818E7F8C9399C0A7E2B0E0E7E2F0E016
:1022900080818B7F8C93A7E2B0E0E7E2F0E0808161
:1022A0008D7F8C93A7E2B0E0E7E2F0E0808181606F
:1022B0008C9383C0A7E2B0E0E7E2F0E080818B7FFF
:1022C0008C93A7E2B0E0E7E2F0E0808182608C933B
:1022D000A7E2B0E0E7E2F0E080818E7F8C936DC0F2
:1022E000A7E2B0E0E7E2F0E080818B7F8C93A7E289
:1022F000B0E0E7E2F0E0808182608C93A7E2B0E09A
:10230000E7E2F0E0808181608C9357C0A7E2B0E003
:10231000E7E2F0E0808184608C93A7E2B0E0E7E23E
:10232000F0E080818D7F8C93A7E2B0E0E7E2F0E0FF
:1023300080818E7F8C9341C0A7E2B0E0E7E2F0E0BD
:10234000808184608C93A7E2B0E0E7E2F0E08081D6
:102350008D7F8C93A7E2B0E0E7E2F0E080818160BE
:102360008C932BC0A7E2B0E0E7E2F0E080818460CC
:102370008C93A7E2B0E0E7E2F0E0808182608C938A
:10238000A7E2B0E0E7E2F0E080818E7F8C9315C099
:10239000A7E2B0E0E7E2F0E0808184608C93A7E2FE
:1023A000B0E0E7E2F0E0808182608C93A7E2B0E0E9
:1023B000E7E2F0E0808181608C93A6E2B0E0E6E2A3
:1023C000F0E0808180648C930F900F900F90CF91FC
:1023D000DF910895DF93CF93CDB7DEB7E6E2F0E06B
:1023E0008081882F90E08071907095958795959564
:1023F00087959595879595958795009779F381E0D1
:1024000090E00E944A1FE4E2F0E08081282F30E053
:10241000E5E2F0E08081882F90E0982F8827822BDA
:10242000932B0E94F321CF91DF9108951F920F9279
:102430000FB60F9211242F933F934F935F936F9397
:102440007F938F939F93AF93BF93EF93FF93DF930C
:10245000CF93CDB7DEB7E0918A01F0918B0109955A
:10246000CF91DF91FF91EF91BF91AF919F918F91AC
:102470007F916F915F914F913F912F910F900FBE80
:102480000F901F901895DF93CF9300D0CDB7DEB794
:102490009A83898389819A8190938B0180938A01A1
:1024A0000F900F90CF91DF910895DF93CF93CDB729
:1024B000DEB780E063E041E00E94170B80E062E05D
:1024C00041E00E94170B81E065E041E00E94170B9C
:1024D00081E066E041E00E94170B81E060E041E0AE
:1024E0000E94170B81E061E041E00E94170B81E040
:1024F00062E041E00E94170B81E064E041E00E944D
:10250000170B80E063E041E00E94130C80E062E082
:1025100041E00E94130C81E065E041E00E94130C51
:1025200081E066E041E00E94130C81E060E040E061
:102530000E94130C81E061E040E00E94130C81E0F6
:1025400062E040E00E94130C81E064E040E00E9401
:10255000130CCF91DF910895DF93CF9300D000D07B
:1025600000D0CDB7DEB789836A838981282F30E018
:102570003E832D838D819E818430910509F459C05D
:102580002D813E8125303105DCF48D819E818130A5
:10259000910509F43CC02D813E81223031052CF497
:1025A0008D819E81009769F167C02D813E81223027
:1025B000310599F18D819E8183309105A1F15CC037
:1025C0002D813E812730310509F445C08D819E81E2
:1025D000883091055CF42D813E812530310579F1FB
:1025E0008D819E818630910581F146C02D813E818D
:1025F00028303105B1F18D819E8189309105B9F185
:102600003BC081E060E048EE0E94430E35C081E0AF
:1026100061E048EE0E94430E2FC081E062E048EE88
:102620000E94430E29C081E063E048EE0E94430E01
:1026300023C081E064E048EE0E94430E1DC081E0AB
:1026400065E048EE0E94430E17C081E066E048EE68
:102650000E94430E11C081E067E048EE0E94430EE5
:102660000BC081E060E148EE0E94430E05C081E0AE
:1026700061E148EE0E94430E8A81282F30E03C83BE
:102680002B838B819C818230910509F12B813C81C8
:102690002330310534F48B819C818130910561F0C8
:1026A00036C02B813C8123303105E1F08B819C8148
:1026B0008430910511F12BC080E064E043EF0E946B
:1026C000430E81E060E64FE90E94430E20C080E0A7
:1026D00068E043EF0E94430E81E060E64FE90E940C
:1026E000430E15C080E06CE043EF0E94430E81E092
:1026F00060E44FE90E94430E0AC080E06CE043EFC3
:102700000E94430E81E060E24FE90E94430E26964C
:102710000FB6F894DEBF0FBECDBFCF91DF91089505
:102720000F931F93DF93CF93CDB7DEB7C058D04040
:102730000FB6F894DEBF0FBECDBFFE01E158FF4FCC
:1027400091838083FE01E158FF4F808191818A301F
:10275000910540F4FE01E158FF4F808161E00E9445
:10276000AC12B9C5FE01E158FF4F808191818436DA
:10277000910508F083C1FE01E158FF4F80819181EE
:102780002AE030E0B9010E94852761E00E94AC1286
:10279000FE01E558FF4F80E090E0A0E0B0E48083C8
:1027A0009183A283B3838E0109581F4FFE01E55820
:1027B000FF4F608171818281938120E030E04AE7A0
:1027C00055E40E941F02DC01CB01F8018083918354
:1027D000A283B383FE01E958FF4F6081718182813A
:1027E000938120E030E040E85FE30E9425048823E5
:1027F00044F4FE01EB58FF4F81E090E09183808329
:1028000064C0FE01E958FF4F60817181828193812C
:1028100020E03FEF4FE757E40E94C50318160CF085
:1028200043C0FE01E558FF4F608171818281938131
:1028300020E030E040E251E40E941F02DC01CB01C5
:102840008E010B581F4FBC01CD010E944900DC01D5
:10285000CB01F801918380831FC0FE01ED58FF4F2B
:1028600080E991E091838083FE01ED58FF4F8081E4
:1028700091810197F1F7FE01ED58FF4F918380831D
:10288000DE01AB58BF4FFE01EB58FF4F80819181B5
:10289000019711969C938E93FE01EB58FF4F808118
:1028A00091810097D1F627C08E010B581F4FFE0172
:1028B000E958FF4F60817181828193810E944900B4
:1028C000DC01CB01F80191838083DE01AF58BF4F5B
:1028D000FE01EB58FF4F808191818D939C93FE0107
:1028E000EF58FF4F808191810197F1F7FE01EF587A
:1028F000FF4F91838083FE01E158FF4F80819181DA
:102900002AE030E0B9010E948527CB0162E00E94F5
:10291000AC12FE01E359FF4F80E090E0A0E0B0E48C
:1029200080839183A283B3838E0107591F4FFE01D9
:10293000E359FF4F608171818281938120E030E013
:102940004AE755E40E941F02DC01CB01F8018083B5
:102950009183A283B383FE01E759FF4F60817181A8
:102960008281938120E030E040E85FE30E9425040B
:10297000882344F4FE01E959FF4F81E090E0918300
:10298000808364C0FE01E759FF4F608171818281BD
:10299000938120E03FEF4FE757E40E94C5031816EC
:1029A0000CF043C0FE01E359FF4F608171818281C9
:1029B000938120E030E040E251E40E941F02DC01FC
:1029C000CB018E0109591F4FBC01CD010E94490066
:1029D000DC01CB01F801918380831FC0FE01EB591C
:1029E000FF4F80E991E091838083FE01EB59FF4F17
:1029F000808191810197F1F7FE01EB59FF4F91839F
:102A00008083DE01A959BF4FFE01E959FF4F808144
:102A10009181019711969C938E93FE01E959FF4F86
:102A2000808191810097D1F656C48E0109591F4FBC
:102A3000FE01E759FF4F60817181828193810E947D
:102A40004900DC01CB01F80191838083DE01AD599F
:102A5000BF4FFE01E959FF4F8081918111969C93F0
:102A60008E93FE01ED59FF4F808191810197F1F71F
:102A7000FE01ED59FF4F918380832DC4FE01E15883
:102A8000FF4F80819181F3E0883E9F0708F01AC2D2
:102A9000FE01E158FF4F808191812AE030E0B901C9
:102AA0000E94852761E00E94AC12FE01E15AFF4FAF
:102AB00080E090E0A0E0B0E480839183A283B383C0
:102AC0008E01055A1F4FFE01E15AFF4F608171814F
:102AD0008281938120E030E04AE755E40E941F02A2
:102AE000DC01CB01F80180839183A283B383FE01D3
:102AF000E55AFF4F608171818281938120E030E04F
:102B000040E85FE30E942504882344F4FE01E75A6D
:102B1000FF4F81E090E09183808364C0FE01E55A1D
:102B2000FF4F608171818281938120E03FEF4FE709
:102B300057E40E94C50318160CF043C0FE01E15A89
:102B4000FF4F608171818281938120E030E040E21B
:102B500051E40E941F02DC01CB018E01075A1F4F76
:102B6000BC01CD010E944900DC01CB01F801918339
:102B700080831FC0FE01E95AFF4F80E991E09183F5
:102B80008083FE01E95AFF4F808191810197F1F71F
:102B9000FE01E95AFF4F91838083DE01A75ABF4FA0
:102BA000FE01E75AFF4F80819181019711969C9316
:102BB0008E93FE01E75AFF4F808191810097D1F6F5
:102BC00027C08E01075A1F4FFE01E55AFF4F608153
:102BD0007181828193810E944900DC01CB01F8015F
:102BE00091838083DE01AB5ABF4FFE01E75AFF4F4E
:102BF000808191818D939C93FE01EB5AFF4F8081E0
:102C000091810197F1F7FE01EB5AFF4F9183808389
:102C1000FE01E158FF4F808191812AE030E0B90147
:102C20000E948527CB012AE030E0B9010E94852768
:102C300062E00E94AC12FE01EF5AFF4F80E090E08C
:102C4000A0E0B0E480839183A283B3838E01035B11
:102C50001F4FFE01EF5AFF4F608171818281938186
:102C600020E030E04AE755E40E941F02DC01CB017E
:102C7000F80180839183A283B383FE01E35BFF4F5E
:102C8000608171818281938120E030E040E85FE3E0
:102C90000E942504882344F4FE01E55BFF4F81E098
:102CA00090E09183808364C0FE01E35BFF4F60810D
:102CB00071818281938120E03FEF4FE757E40E94CA
:102CC000C50318160CF043C0FE01EF5AFF4F608198
:102CD00071818281938120E030E040E251E40E94E2
:102CE0001F02DC01CB018E01055B1F4FBC01CD0132
:102CF0000E944900DC01CB01F801918380831FC051
:102D0000FE01E75BFF4F80E991E091838083FE0144
:102D1000E75BFF4F808191810197F1F7FE01E75B4F
:102D2000FF4F91838083DE01A55BBF4FFE01E55B12
:102D3000FF4F80819181019711969C938E93FE01A4
:102D4000E55BFF4F808191810097D1F627C08E010E
:102D5000055B1F4FFE01E35BFF4F60817181828144
:102D600093810E944900DC01CB01F80191838083AB
:102D7000DE01A95BBF4FFE01E55BFF4F80819181C2
:102D80008D939C93FE01E95BFF4F808191810197B8
:102D9000F1F7FE01E95BFF4F91838083FE01E1586B
:102DA000FF4F8081918124E630E0B9010E948527A0
:102DB000CB0163E00E94AC12FE01ED5BFF4F80E0AF
:102DC00090E0A0E0B0E480839183A283B3838E017E
:102DD000015C1F4FFE01ED5BFF4F608171818281BD
:102DE000938120E030E04AE755E40E941F02DC01B5
:102DF000CB01F80180839183A283B383FE01FF9608
:102E0000608171818281938120E030E040E85FE35E
:102E10000E94250488232CF481E090E09EAF8DAFC2
:102E200046C0FE01FF96608171818281938120E01E
:102E30003FEF4FE757E40E94C503181664F5FE0103
:102E4000ED5BFF4F608171818281938120E030E0F2
:102E500040E251E40E941F02DC01CB01BC01CD0124
:102E60000E944900DC01CB019EAF8DAF0FC080E90D
:102E700091E09CAF8BAF8BAD9CAD0197F1F79CAF10
:102E80008BAF8DAD9EAD01979EAF8DAF8DAD9EADDD
:102E9000009769F720C2FE01FF96608171818281EF
:102EA00093810E944900DC01CB019EAF8DAF8DADB7
:102EB0009EAD9AAF89AF89AD9AAD0197F1F79AAF00
:102EC00089AF09C2FE01E158FF4F808191812AE05C
:102ED00030E0B9010E94852761E00E94AC1280E0D9
:102EE00090E0A0E0B0E48DAB9EABAFABB8AF6DA906
:102EF0007EA98FA998AD20E030E04AE755E40E9412
:102F00001F02DC01CB0189AB9AABABABBCAB69A9AF
:102F10007AA98BA99CA920E030E040E85FE30E94F9
:102F2000250488232CF481E090E098AB8FA73FC064
:102F300069A97AA98BA99CA920E03FEF4FE757E444
:102F40000E94C50318164CF56DA97EA98FA998ADEE
:102F500020E030E040E251E40E941F02DC01CB019E
:102F6000BC01CD010E944900DC01CB0198AB8FA7C9
:102F70000FC080E991E09EA78DA78DA59EA5019722
:102F8000F1F79EA78DA78FA598A9019798AB8FA75A
:102F90008FA598A9009769F714C069A97AA98BA988
:102FA0009CA90E944900DC01CB0198AB8FA78FA59B
:102FB00098A99CA78BA78BA59CA50197F1F79CA727
:102FC0008BA7FE01E158FF4F808191812AE030E01C
:102FD000B9010E948527CB012AE030E0B9010E94A7
:102FE000852762E00E94AC1280E090E0A0E0B0E4AF
:102FF0008FA398A7A9A7BAA76FA178A589A59AA515
:1030000020E030E04AE755E40E941F02DC01CB01DA
:103010008BA39CA3ADA3BEA36BA17CA18DA19EA1FC
:1030200020E030E040E85FE30E94250488232CF490
:1030300081E090E09AA389A33FC06BA17CA18DA100
:103040009EA120E03FEF4FE757E40E94C50318160A
:103050004CF56FA178A589A59AA520E030E040E263
:1030600051E40E941F02DC01CB01BC01CD010E9492
:103070004900DC01CB019AA389A30FC080E991E04C
:1030800098A38F8F8F8D98A10197F1F798A38F8FB9
:1030900089A19AA101979AA389A389A19AA10097CE
:1030A00069F714C06BA17CA18DA19EA10E9449006B
:1030B000DC01CB019AA389A389A19AA19E8F8D8F50
:1030C0008D8D9E8D0197F1F79E8F8D8FFE01E158BA
:1030D000FF4F8081918124E630E0B9010E9485276D
:1030E000CB012AE030E0B9010E94852763E00E940D
:1030F000AC1280E090E0A0E0B0E4898F9A8FAB8FB3
:10310000BC8F698D7A8D8B8D9C8D20E030E04AE7F5
:1031100055E40E941F02DC01CB018D8B9E8BAF8B8F
:10312000B88F6D897E898F89988D20E030E040E8E6
:103130005FE30E94250488232CF481E090E09C8BBF
:103140008B8B3FC06D897E898F89988D20E03FEF02
:103150004FE757E40E94C50318164CF5698D7A8D28
:103160008B8D9C8D20E030E040E251E40E941F02F4
:10317000DC01CB01BC01CD010E944900DC01CB0187
:103180009C8B8B8B0FC080E991E09A8B898B89890E
:103190009A890197F1F79A8B898B8B899C89019782
:1031A0009C8B8B8B8B899C89009769F714C06D89E8
:1031B0007E898F89988D0E944900DC01CB019C8B10
:1031C0008B8B8B899C89988B8F878F8598890197AA
:1031D000F1F7988B8F87FE01E158FF4F8081918135
:1031E00028EE33E0B9010E948527CB0164E00E94FC
:1031F000AC1280E090E0A0E0B0E48B879C87AD87C4
:10320000BE876B857C858D859E8520E030E04AE712
:1032100055E40E941F02DC01CB018F839887A987A8
:10322000BA876F81788589859A8520E030E040E80B
:103230005FE30E94250488232CF481E090E09E83C4
:103240008D833FC06F81788589859A8520E03FEF27
:103250004FE757E40E94C50318164CF56B857C8533
:103260008D859E8520E030E040E251E40E941F02FF
:10327000DC01CB01BC01CD010E944900DC01CB0186
:103280009E838D830FC080E991E09C838B838B812B
:103290009C810197F1F79C838B838D819E8101979F
:1032A0009E838D838D819E81009769F714C06F8105
:1032B000788589859A850E944900DC01CB019E832F
:1032C0008D838D819E819A83898389819A810197DB
:1032D000F1F79A838983C058DF4F0FB6F894DEBFA9
:1032E0000FBECDBFCF91DF911F910F9108950F9326
:1032F0001F93DF93CF93CDB7DEB7C455D0400FB641
:10330000F894DEBF0FBECDBF80E062E041E00E94D6
:10331000170B80E063E041E00E94170B81E067E05B
:1033200041E00E94170B81E061E041E00E94170B31
:1033300081E062E041E00E94170B81E064E041E03F
:103340000E94170BFE01EF5AFF4F80E090E0A0E2D1
:10335000B2E480839183A283B3838E01035B1F4F0A
:10336000FE01EF5AFF4F608171818281938120E0DD
:1033700030E04AE755E40E941F02DC01CB01F8016E
:1033800080839183A283B383FE01E35BFF4F60815F
:1033900071818281938120E030E040E85FE30E9408
:1033A0002504882344F4FE01E55BFF4F81E090E0B3
:1033B0009183808364C0FE01E35BFF4F6081718174
:1033C0008281938120E03FEF4FE757E40E94C503DD
:1033D00018160CF043C0FE01EF5AFF4F6081718157
:1033E0008281938120E030E040E251E40E941F029C
:1033F000DC01CB018E01055B1F4FBC01CD010E949A
:103400004900DC01CB01F801918380831FC0FE01DC
:10341000E75BFF4F80E991E091838083FE01E75BEA
:10342000FF4F808191810197F1F7FE01E75BFF4F2C
:1034300091838083DE01A55BBF4FFE01E55BFF4FFB
:1034400080819181019711969C938E93FE01E55B9B
:10345000FF4F808191810097D1F627C08E01055BD7
:103460001F4FFE01E35BFF4F608171818281938179
:103470000E944900DC01CB01F80191838083DE01C9
:10348000A95BBF4FFE01E55BFF4F808191818D936A
:103490009C93FE01E95BFF4F808191810197F1F7D9
:1034A000FE01E95BFF4F9183808381E067E040E0AC
:1034B0000E94130C81E061E041E00E94130C81E066
:1034C00062E040E00E94130C81E064E040E00E9472
:1034D000130C80E062E041E00E94130CFE01ED5B02
:1034E000FF4F80E090E0A0E0B0E480839183A2836E
:1034F000B3838E01015C1F4FFE01ED5BFF4F6081C6
:1035000071818281938120E030E04AE755E40E9496
:103510001F02DC01CB01F80180839183A283B38376
:10352000FE01FF96608171818281938120E030E00D
:1035300040E85FE30E94250488232CF481E090E0BA
:103540009EAF8DAF46C0FE01FF9660817181828182
:10355000938120E03FEF4FE757E40E94C503181620
:1035600064F5FE01ED5BFF4F608171818281938183
:1035700020E030E040E251E40E941F02DC01CB0178
:10358000BC01CD010E944900DC01CB019EAF8DAF93
:103590000FC080E991E09CAF8BAF8BAD9CAD0197E4
:1035A000F1F79CAF8BAF8DAD9EAD01979EAF8DAF08
:1035B0008DAD9EAD009769F716C0FE01FF96608144
:1035C0007181828193810E944900DC01CB019EAF11
:1035D0008DAF8DAD9EAD9AAF89AF89AD9AAD019794
:1035E000F1F79AAF89AF80E062E040E00E94130CEF
:1035F00080E090E0A0E0B0E48DAB9EABAFABB8AFA5
:103600006DA97EA98FA998AD20E030E04AE755E486
:103610000E941F02DC01CB0189AB9AABABABBCAB08
:1036200069A97AA98BA99CA920E030E040E85FE372
:103630000E94250488232CF481E090E098AB8FA7AA
:103640003FC069A97AA98BA99CA920E03FEF4FE769
:1036500057E40E94C50318164CF56DA97EA98FA9E1
:1036600098AD20E030E040E251E40E941F02DC010E
:10367000CB01BC01CD010E944900DC01CB0198AB1C
:103680008FA70FC080E991E09EA78DA78DA59EA56D
:103690000197F1F79EA78DA78FA598A9019798ABE1
:1036A0008FA78FA598A9009769F714C069A97AA96F
:1036B0008BA99CA90E944900DC01CB0198AB8FA784
:1036C0008FA598A99CA78BA78BA59CA50197F1F71F
:1036D0009CA78BA788E20E944A1F80E090E0A0E8A8
:1036E000BFE38FA398A7A9A7BAA76FA178A589A5BB
:1036F0009AA520E030E04AE755E40E941F02DC0171
:10370000CB018BA39CA3ADA3BEA36BA17CA18DA178
:103710009EA120E030E040E85FE30E94250488237A
:103720002CF481E090E09AA389A33FC06BA17CA117
:103730008DA19EA120E03FEF4FE757E40E94C50313
:1037400018164CF56FA178A589A59AA520E030E060
:1037500040E251E40E941F02DC01CB01BC01CD011B
:103760000E944900DC01CB019AA389A30FC080E924
:1037700091E098A38F8F8F8D98A10197F1F798A36F
:103780008F8F89A19AA101979AA389A389A19AA150
:10379000009769F714C06BA17CA18DA19EA10E9426
:1037A0004900DC01CB019AA389A389A19AA19E8F2C
:1037B0008D8F8D8D9E8D0197F1F79E8F8D8F8CE073
:1037C0000E944A1F80E090E0A0E8BFE3898F9A8FB3
:1037D000AB8FBC8F698D7A8D8B8D9C8D20E030E016
:1037E0004AE755E40E941F02DC01CB018D8B9E8BC2
:1037F000AF8BB88F6D897E898F89988D20E030E0FE
:1038000040E85FE30E94250488232CF481E090E0E7
:103810009C8B8B8B3FC06D897E898F89988D20E032
:103820003FEF4FE757E40E94C50318164CF5698D2A
:103830007A8D8B8D9C8D20E030E040E251E40E9437
:103840001F02DC01CB01BC01CD010E944900DC015B
:10385000CB019C8B8B8B0FC080E991E09A8B898B7D
:1038600089899A890197F1F79A8B898B8B899C8931
:1038700001979C8B8B8B8B899C89009769F714C06F
:103880006D897E898F89988D0E944900DC01CB016A
:103890009C8B8B8B8B899C89988B8F878F85988944
:1038A0000197F1F7988B8F8781E00E944A1F80E093
:1038B00090E0A0E0B0E48B879C87AD87BE876B85E6
:1038C0007C858D859E8520E030E04AE755E40E94A6
:1038D0001F02DC01CB018F839887A987BA876F818C
:1038E000788589859A8520E030E040E85FE30E9492
:1038F000250488232CF481E090E09E838D833FC0D3
:103900006F81788589859A8520E03FEF4FE757E4FE
:103910000E94C50318164CF56B857C858D859E85A8
:1039200020E030E040E251E40E941F02DC01CB01C4
:10393000BC01CD010E944900DC01CB019E838D8337
:103940000FC080E991E09C838B838B819C810197E0
:10395000F1F79C838B838D819E8101979E838D835C
:103960008D819E81009769F714C06F817885898564
:103970009A850E944900DC01CB019E838D838D8155
:103980009E819A83898389819A810197F1F79A832D
:10399000898386E00E944A1F80E80E944A1FCC5A11
:1039A000DF4F0FB6F894DEBF0FBECDBFCF91DF91D2
:1039B0001F910F910895DF93CF93CDB7DEB7E997AD
:1039C0000FB6F894DEBF0FBECDBF89AF80E063E0D5
:1039D00041E00E94130C89AD982F991F9927991FD8
:1039E00081E064E0492F0E94130C89AD882F90E09C
:1039F00080749070082E892F000C881F990B000C82
:103A0000881F991F982F81E062E0492F0E94130CB4
:103A100089AD882F90E080729070959587959595E7
:103A20008795959587959595879595958795982FE1
:103A300081E061E0492F0E94130C89AD882F90E04E
:103A400080719070959587959595879595958795B3
:103A500095958795982F81E067E0492F0E94130C78
:103A600080E062E041E00E94130C80E090E0A0E082
:103A7000B0E48DAB9EABAFABB8AF6DA97EA98FA9FB
:103A800098AD20E030E04AE755E40E941F02DC01D7
:103A9000CB0189AB9AABABABBCAB69A97AA98BA9BB
:103AA0009CA920E030E040E85FE30E9425048823E1
:103AB0002CF481E090E098AB8FA73FC069A97AA968
:103AC0008BA99CA920E03FEF4FE757E40E94C50374
:103AD00018164CF56DA97EA98FA998AD20E030E0AD
:103AE00040E251E40E941F02DC01CB01BC01CD0188
:103AF0000E944900DC01CB0198AB8FA70FC080E981
:103B000091E09EA78DA78DA59EA50197F1F79EA791
:103B10008DA78FA598A9019798AB8FA78FA598A976
:103B2000009769F714C069A97AA98BA99CA90E947A
:103B30004900DC01CB0198AB8FA78FA598A99CA762
:103B40008BA78BA59CA50197F1F79CA78BA780E07D
:103B500062E040E00E94130C80E090E0A0E0B0E45E
:103B60008FA398A7A9A7BAA76FA178A589A59AA599
:103B700020E030E04AE755E40E941F02DC01CB015F
:103B80008BA39CA3ADA3BEA36BA17CA18DA19EA181
:103B900020E030E040E85FE30E94250488232CF415
:103BA00081E090E09AA389A33FC06BA17CA18DA185
:103BB0009EA120E03FEF4FE757E40E94C50318168F
:103BC0004CF56FA178A589A59AA520E030E040E2E8
:103BD00051E40E941F02DC01CB01BC01CD010E9417
:103BE0004900DC01CB019AA389A30FC080E991E0D1
:103BF00098A38F8F8F8D98A10197F1F798A38F8F3E
:103C000089A19AA101979AA389A389A19AA1009752
:103C100069F714C06BA17CA18DA19EA10E944900EF
:103C2000DC01CB019AA389A389A19AA19E8F8D8FD4
:103C30008D8D9E8D0197F1F79E8F8D8F89AD882F89
:103C400090E0887090709595879595958795959556
:103C50008795982F81E064E0492F0E94130C89AD6D
:103C6000882F90E0847090709595879595958795AD
:103C7000982F81E062E0492F0E94130C89AD882FB4
:103C800090E08270907095958795982F81E061E023
:103C9000492F0E94130C89AD982F917081E067E045
:103CA000492F0E94130C80E062E041E00E94130C57
:103CB00080E090E0A0E0B0E4898F9A8FAB8FBC8F5A
:103CC000698D7A8D8B8D9C8D20E030E04AE755E43C
:103CD0000E941F02DC01CB018D8B9E8BAF8BB88FB6
:103CE0006D897E898F89988D20E030E040E85FE320
:103CF0000E94250488232CF481E090E09C8B8B8B20
:103D00003FC06D897E898F89988D20E03FEF4FE716
:103D100057E40E94C50318164CF5698D7A8D8B8D7A
:103D20009C8D20E030E040E251E40E941F02DC0163
:103D3000CB01BC01CD010E944900DC01CB019C8B71
:103D40008B8B0FC080E991E09A8B898B89899A8946
:103D50000197F1F79A8B898B8B899C8901979C8BB2
:103D60008B8B8B899C89009769F714C06D897E893C
:103D70008F89988D0E944900DC01CB019C8B8B8B35
:103D80008B899C89988B8F878F8598890197F1F70C
:103D9000988B8F8780E062E040E00E94130C80E007
:103DA00090E0A0E0B0E48B879C87AD87BE876B85F1
:103DB0007C858D859E8520E030E04AE755E40E94B1
:103DC0001F02DC01CB018F839887A987BA876F8197
:103DD000788589859A8520E030E040E85FE30E949D
:103DE000250488232CF481E090E09E838D833FC0DE
:103DF0006F81788589859A8520E03FEF4FE757E40A
:103E00000E94C50318164CF56B857C858D859E85B3
:103E100020E030E040E251E40E941F02DC01CB01CF
:103E2000BC01CD010E944900DC01CB019E838D8342
:103E30000FC080E991E09C838B838B819C810197EB
:103E4000F1F79C838B838D819E8101979E838D8367
:103E50008D819E81009769F714C06F81788589856F
:103E60009A850E944900DC01CB019E838D838D8160
:103E70009E819A83898389819A810197F1F79A8338
:103E80008983E9960FB6F894DEBF0FBECDBFCF9100
:103E9000DF910895DF93CF93CDB7DEB7E9970FB6E3
:103EA000F894DEBF0FBECDBF89AF80E063E040E095
:103EB0000E94130C89AD982F991F9927991F81E0B3
:103EC00064E0492F0E94130C89AD882F90E0807424
:103ED0009070082E892F000C881F990B000C881FEA
:103EE000991F982F81E062E0492F0E94130C89AD41
:103EF000882F90E08072907095958795959587951D
:103F0000959587959595879595958795982F81E0B7
:103F100061E0492F0E94130C89AD882F90E08071D9
:103F20009070959587959595879595958795959595
:103F30008795982F81E067E0492F0E94130C80E05D
:103F400062E041E00E94130C80E090E0A0E0B0E469
:103F50008DAB9EABAFABB8AF6DA97EA98FA998AD65
:103F600020E030E04AE755E40E941F02DC01CB016B
:103F700089AB9AABABABBCAB69A97AA98BA99CA95D
:103F800020E030E040E85FE30E94250488232CF421
:103F900081E090E098AB8FA73FC069A97AA98BA96F
:103FA0009CA920E03FEF4FE757E40E94C503181695
:103FB0004CF56DA97EA98FA998AD20E030E040E2D4
:103FC00051E40E941F02DC01CB01BC01CD010E9423
:103FD0004900DC01CB0198AB8FA70FC080E991E0CD
:103FE0009EA78DA78DA59EA50197F1F79EA78DA7EA
:103FF0008FA598A9019798AB8FA78FA598A900972F
:1040000069F714C069A97AA98BA99CA90E944900E3
:10401000DC01CB0198AB8FA78FA598A99CA78BA794
:104020008BA59CA50197F1F79CA78BA780E062E088
:1040300040E00E94130C80E090E0A0E0B0E48FA389
:1040400098A7A9A7BAA76FA178A589A59AA520E0E6
:1040500030E04AE755E40E941F02DC01CB018BA34C
:104060009CA3ADA3BEA36BA17CA18DA19EA120E0CA
:1040700030E040E85FE30E94250488232CF481E0CF
:1040800090E09AA389A33FC06BA17CA18DA19EA1C2
:1040900020E03FEF4FE757E40E94C50318164CF5A8
:1040A0006FA178A589A59AA520E030E040E251E40F
:1040B0000E941F02DC01CB01BC01CD010E9449001E
:1040C000DC01CB019AA389A30FC080E991E098A3FA
:1040D0008F8F8F8D98A10197F1F798A38F8F89A16A
:1040E0009AA101979AA389A389A19AA1009769F738
:1040F00014C06BA17CA18DA19EA10E944900DC018E
:10410000CB019AA389A389A19AA19E8F8D8F8D8DB2
:104110009E8D0197F1F79E8F8D8F89AD882F90E04E
:1041200088709070959587959595879595958795C5
:10413000982F81E064E0492F0E94130C89AD882FED
:1041400090E0847090709595879595958795982FB8
:1041500081E062E0492F0E94130C89AD882F90E026
:104160008270907095958795982F81E061E0492F36
:104170000E94130C89AD982F917081E067E0492F60
:104180000E94130C80E062E041E00E94130C80E08A
:1041900090E0A0E0B0E4898F9A8FAB8FBC8F698DDF
:1041A0007A8D8B8D9C8D20E030E04AE755E40E94AB
:1041B0001F02DC01CB018D8B9E8BAF8BB88F6D897D
:1041C0007E898F89988D20E030E040E85FE30E948F
:1041D000250488232CF481E090E09C8B8B8B3FC0DE
:1041E0006D897E898F89988D20E03FEF4FE757E4F6
:1041F0000E94C50318164CF5698D7A8D8B8D9C8DA8
:1042000020E030E040E251E40E941F02DC01CB01DB
:10421000BC01CD010E944900DC01CB019C8B8B8B42
:104220000FC080E991E09A8B898B89899A890197DF
:10423000F1F79A8B898B8B899C8901979C8B8B8B4F
:104240008B899C89009769F714C06D897E898F8955
:10425000988D0E944900DC01CB019C8B8B8B8B8954
:104260009C89988B8F878F8598890197F1F7988B18
:104270008F8780E062E040E00E94130C80E090E0D5
:10428000A0E0B0E48B879C87AD87BE876B857C857B
:104290008D859E8520E030E04AE755E40E941F02AC
:1042A000DC01CB018F839887A987BA876F817885D6
:1042B00089859A8520E030E040E85FE30E9425048C
:1042C00088232CF481E090E09E838D833FC06F8132
:1042D000788589859A8520E03FEF4FE757E40E9473
:1042E000C50318164CF56B857C858D859E8520E071
:1042F00030E040E251E40E941F02DC01CB01BC012E
:10430000CD010E944900DC01CB019E838D830FC04B
:1043100080E991E09C838B838B819C810197F1F7ED
:104320009C838B838D819E8101979E838D838D815C
:104330009E81009769F714C06F81788589859A8579
:104340000E944900DC01CB019E838D838D819E817B
:104350009A83898389819A810197F1F79A83898366
:10436000E9960FB6F894DEBF0FBECDBFCF91DF91B7
:104370000895DF93CF9300D0CDB7DEB789836A83EA
:1043800089819A81890F0E944A1F0F900F90CF91C7
:10439000DF910895DF93CF9300D00F92CDB7DEB7B2
:1043A0009B838A8319820EC08981282F30E08A81FD
:1043B0009B81FC01E20FF31F80810E94DB1C89813D
:1043C0008F5F89838981282F30E08A819B81FC015E
:1043D000E20FF31F8081882339F70F900F900F9021
:1043E000CF91DF910895DF93CF9300D000D0CDB768
:1043F000DEB769837A838B839C8389819A81AB81C1
:10440000BC818A309105A105B10528F48981805DC0
:104410000E94DB1CAFC289819A81AB81BC8184364A
:104420009105A105B10518F589819A81AB81BC81FF
:104430002AE030E040E050E0BC01CD010E94992725
:10444000DA01C901805D0E94DB1C89819A81AB8100
:10445000BC812AE030E040E050E0BC01CD010E9488
:104460009927DC01CB01805D0E94DB1C83C289811E
:104470009A81AB81BC81883E23E0920720E0A207AD
:1044800020E0B207F0F589819A81AB81BC8124E6F6
:1044900030E040E050E0BC01CD010E949927DA01F4
:1044A000C901805D0E94DB1C89819A81AB81BC813E
:1044B0002AE030E040E050E0BC01CD010E949927A5
:1044C000DA01C9012AE030E040E050E0BC01CD0152
:1044D0000E949927DC01CB01805D0E94DB1C898151
:1044E0009A81AB81BC812AE030E040E050E0BC0121
:1044F000CD010E949927DC01CB01805D0E94DB1C6D
:1045000039C289819A81AB81BC81803127E29207CF
:1045100020E0A20720E0B20708F059C089819A8103
:10452000AB81BC8128EE33E040E050E0BC01CD011E
:104530000E949927DA01C901805D0E94DB1C8981F4
:104540009A81AB81BC8124E630E040E050E0BC01C0
:10455000CD010E949927DA01C9012AE030E040E04C
:1045600050E0BC01CD010E949927DC01CB01805DA8
:104570000E94DB1C89819A81AB81BC812AE030E0FA
:1045800040E050E0BC01CD010E949927DA01C90149
:104590002AE030E040E050E0BC01CD010E949927C4
:1045A000DC01CB01805D0E94DB1C89819A81AB819B
:1045B000BC812AE030E040E050E0BC01CD010E9427
:1045C0009927DC01CB01805D0E94DB1CD3C189816E
:1045D0009A81AB81BC81803A26E8920721E0A2074C
:1045E00020E0B20708F074C089819A81AB81BC8158
:1045F00020E137E240E050E0BC01CD010E94992764
:10460000DA01C901805D0E94DB1C89819A81AB813E
:10461000BC8128EE33E040E050E0BC01CD010E94B7
:104620009927DA01C9012AE030E040E050E0BC01FE
:10463000CD010E949927DC01CB01805D0E94DB1C2B
:1046400089819A81AB81BC8124E630E040E050E072
:10465000BC01CD010E949927DA01C9012AE030E0AE
:1046600040E050E0BC01CD010E949927DC01CB0164
:10467000805D0E94DB1C89819A81AB81BC812AE02C
:1046800030E040E050E0BC01CD010E949927DA0102
:10469000C9012AE030E040E050E0BC01CD010E94B9
:1046A0009927DC01CB01805D0E94DB1C89819A8106
:1046B000AB81BC812AE030E040E050E0BC01CD019C
:1046C0000E949927DC01CB01805D0E94DB1C52C156
:1046D00089819A81AB81BC81803422E492072FE0EA
:1046E000A20720E0B20708F08FC089819A81AB81D0
:1046F000BC8120EA36E841E050E0BC01CD010E94D7
:104700009927DA01C901805D0E94DB1C89819A81A9
:10471000AB81BC8120E137E240E050E0BC01CD013B
:104720000E949927DA01C9012AE030E040E050E018
:10473000BC01CD010E949927DC01CB01805D0E9464
:10474000DB1C89819A81AB81BC8128EE33E040E09B
:1047500050E0BC01CD010E949927DA01C9012AE08D
:1047600030E040E050E0BC01CD010E949927DC011F
:10477000CB01805D0E94DB1C89819A81AB81BC8169
:1047800024E630E040E050E0BC01CD010E949927D2
:10479000DA01C9012AE030E040E050E0BC01CD017F
:1047A0000E949927DC01CB01805D0E94DB1C89817E
:1047B0009A81AB81BC812AE030E040E050E0BC014E
:1047C000CD010E949927DA01C9012AE030E040E0DA
:1047D00050E0BC01CD010E949927DC01CB01805D36
:1047E0000E94DB1C89819A81AB81BC812AE030E088
:1047F00040E050E0BC01CD010E949927DC01CB01D3
:10480000805D0E94DB1CB6C089819A81AB81BC812E
:10481000803826E9920728E9A20720E0B20708F0CD
:10482000A9C089819A81AB81BC8120E432E44FE048
:1048300050E0BC01CD010E949927DA01C901805DD9
:104840000E94DB1C89819A81AB81BC8120EA36E819
:1048500041E050E0BC01CD010E949927DA01C90175
:104860002AE030E040E050E0BC01CD010E949927F1
:10487000DC01CB01805D0E94DB1C89819A81AB81C8
:10488000BC8120E137E240E050E0BC01CD010E9454
:104890009927DA01C9012AE030E040E050E0BC018C
:1048A000CD010E949927DC01CB01805D0E94DB1CB9
:1048B00089819A81AB81BC8128EE33E040E050E0F1
:1048C000BC01CD010E949927DA01C9012AE030E03C
:1048D00040E050E0BC01CD010E949927DC01CB01F2
:1048E000805D0E94DB1C89819A81AB81BC8124E6BA
:1048F00030E040E050E0BC01CD010E949927DA0190
:10490000C9012AE030E040E050E0BC01CD010E9446
:104910009927DC01CB01805D0E94DB1C89819A8193
:10492000AB81BC812AE030E040E050E0BC01CD0129
:104930000E949927DA01C9012AE030E040E050E006
:10494000BC01CD010E949927DC01CB01805D0E9452
:10495000DB1C89819A81AB81BC812AE030E040E098
:1049600050E0BC01CD010E949927DC01CB01805DA4
:104970000E94DB1C0F900F900F900F90CF91DF9152
:104980000895DF93CF9300D000D0CDB7DEB79B83DF
:104990008A836C838C810E944A1F19820EC0898190
:1049A000282F30E08A819B81FC01E20FF31F808178
:1049B0000E94DB1C89818F5F89838981883078F32D
:1049C0000F900F900F900F90CF91DF910895DF938C
:1049D000CF93CDB7DEB782E065E040E00E94170BD1
:1049E00082E064E040E00E94170B82E063E040E078
:1049F0000E94170B82E062E040E00E94170B82E009
:104A000065E041E00E94130C82E064E041E00E9416
:104A1000130C82E063E041E00E94130C82E062E04C
:104A200041E00E94130C83E067E041E00E94170B15
:104A300083E066E041E00E94170B83E065E041E01F
:104A40000E94170B83E063E041E00E94170B83E0B4
:104A500067E041E00E94130C83E066E041E00E94C1
:104A6000130C83E065E041E00E94130C83E063E0F7
:104A700041E00E94130CCF91DF910895DF93CF9313
:104A8000CDB7DEB728970FB6F894DEBF0FBECDBF07
:104A90009C838B837E836D8358874F831A823FC0AC
:104AA0008A818130C9F18A81882F90E09C012D5F35
:104AB0003F4F81E090E002C0880F991F2A95E2F7EE
:104AC000982F909583E0692F47E10E94430E198249
:104AD00020C08981982F9E5F82E0692F0E94FB0E83
:104AE0008823A1F493E08981292F281B822FEB8151
:104AF000FC81808394E08A81292F281B822FED81FD
:104B0000FE818083EF81F88581E0808389818F5FDA
:104B1000898389818430E8F28A818F5F8A838A81E0
:104B2000853008F4BDCF83E06FEF47E10E94430E6C
:104B300028960FB6F894DEBF0FBECDBFCF91DF91A0
:104B40000895DF93CF93CDB7DEB780E061E00E9498
:104B50008C0DCF91DF910895DF93CF9300D00F920A
:104B6000CDB7DEB789838981282F30E03B832A8344
:104B70008A819B818430910509F455C02A813B814B
:104B800025303105DCF48A819B818130910509F45F
:104B90003BC02A813B81223031052CF48A819B81E4
:104BA000009769F15DC02A813B812230310589F18E
:104BB0008A819B818330910589F152C02A813B8192
:104BC0002730310509F43EC08A819B8188309105E8
:104BD0005CF42A813B812530310551F18A819B812A
:104BE0008630910551F13CC02A813B812830310546
:104BF00071F18A819B818930910571F131C080E02A
:104C00006FE30E94020E2CC080E066E00E94020E5C
:104C100027C080E06BE50E94020E22C080E06FE4B6
:104C20000E94020E1DC080E066E60E94020E18C0BF
:104C300080E06DE60E94020E13C080E06DE70E94E6
:104C4000020E0EC080E067E40E94020E09C080E000
:104C50006FE70E94020E04C080E06FE60E94020E21
:104C60000F900F900F90CF91DF910895DF93CF9326
:104C700000D000D00F92CDB7DEB78A836B8381E07E
:104C800089838B81882379F48981282F30E03D83C3
:104C90002C8311C099818A81989F802D112489834A
:104CA0008B8181508B838B818823A1F78981282F69
:104CB00030E03D832C838C819D810F900F900F906D
:104CC0000F900F90CF91DF910895DF93CF93CDB7E1
:104CD000DEB780918C0190918D01019690938D01AA
:104CE00080938C0180918C0190918D012FE0803A0E
:104CF000920741F481E065E00E940F0D10928D0152
:104D000010928C01CF91DF910895DF93CF93CDB7AF
:104D1000DEB780918C0190918D01019690938D0169
:104D200080938C0180918C0190918D012FE0803ACD
:104D3000920769F481E065E00E940F0D80918E0179
:104D40008F5F80938E0110928D0110928C01CF9114
:104D5000DF910895DF93CF93CDB7DEB780919101B6
:104D60009091920101969093920180939101A8E510
:104D7000B0E0E8E5F0E0808184608C93CF91DF9132
:104D80000895DF93CF93CDB7DEB780919301882349
:104D900051F5E6E4F0E0808191819C0140E050E033
:104DA0008091910190919201CC01A0E0B0E0DC01F2
:104DB00099278827820F931FA41FB51F8093940102
:104DC00090939501A0939601B0939701AEE4B0E063
:104DD000EEE4F0E0808180648C93809193018F5F9A
:104DE0008093930186C080919301813051F5E6E470
:104DF000F0E0808191819C0140E050E08091910140
:104E000090919201CC01A0E0B0E0DC0199278827C5
:104E1000820F931FA41FB51F8093990190939A014D
:104E2000A0939B01B0939C01AEE4B0E0EEE4F0E00F
:104E300080818F7B8C93809193018F5F809393010E
:104E400058C080919301823051F5E6E4F0E0808112
:104E500091819C0140E050E08091910190919201FC
:104E6000CC01A0E0B0E0DC0199278827820F931FD6
:104E7000A41FB51F80939D0190939E01A0939F0155
:104E8000B093A001AEE4B0E0EEE4F0E08081806495
:104E90008C93809193018F5F809393012AC08091BE
:104EA0009301833031F5E6E4F0E0808191819C014B
:104EB00040E050E08091910190919201CC01A0E0FE
:104EC000B0E0DC0199278827820F931FA41FB51F2C
:104ED0008093A1019093A201A093A301B093A40198
:104EE000809193018F5F809393010E9405090E9436
:104EF0002109CF91DF910895DF93CF93CDB7DEB72E
:104F000080E090E0CF91DF910895AA1BBB1B51E197
:104F100007C0AA1FBB1FA617B70710F0A61BB70B29
:104F2000881F991F5A95A9F780959095BC01CD01CE
:104F30000895A1E21A2EAA1BBB1BFD010DC0AA1FDA
:104F4000BB1FEE1FFF1FA217B307E407F50720F0F2
:104F5000A21BB30BE40BF50B661F771F881F991F6D
:104F60001A9469F760957095809590959B01AC01B6
:104F7000BD01CF01089597FB092E05260ED057FDE0
:104F800004D0D7DF0AD0001C38F4509540953095F6
:104F900021953F4F4F4F5F4F0895F6F790958095BD
:104FA000709561957F4F8F4F9F4F08952F923F923D
:104FB0004F925F926F927F928F929F92AF92BF9229
:104FC000CF92DF92EF92FF920F931F93CF93DF93D5
:104FD000CDB7DEB7CA1BDB0B0FB6F894DEBF0FBE32
:104FE000CDBF09942A88398848885F846E847D847F
:104FF0008C849B84AA84B984C884DF80EE80FD8081
:105000000C811B81AA81B981CE0FD11D0FB6F894F6
:0E501000DEBF0FBECDBFED010895F894FFCFB7
:10501E000000000000000000000102020303030371
:10502E00040404040404040405050505050505052A
:10503E00050505050505050506060606060606060A
:10504E0006060606060606060606060606060606F2
:10505E0006060606060606060707070707070707DA
:10506E0007070707070707070707070707070707C2
:10507E0007070707070707070707070707070707B2
:10508E0007070707070707070707070707070707A2
:10509E00070707070707070708080808080808088A
:1050AE000808080808080808080808080808080872
:1050BE000808080808080808080808080808080862
:1050CE000808080808080808080808080808080852
:1050DE000808080808080808080808080808080842
:1050EE000808080808080808080808080808080832
:1050FE000808080808080808080808080808080822
:10510E000808080808080808080808080808080811
:10511E000808080808080808373839202F343536AB
:0C512E00202A313233202D23303D202B6D
:00000001FF
