:100000000C942A000C943F000C943F000C943F0089
:100010000C943F000C943F000C943F000C943F0064
:100020000C943F000C943F000C943F000C943F0054
:100030000C943F000C943F000C943F000C943F0044
:100040000C943F000C943F000C943F000C943F0034
:100050000C943F0011241FBECFE5D8E0DEBFCDBF1A
:1000600010E0A0E6B0E0E2EBF4E402C005900D92EF
:10007000AA37B107D9F70E941B1D0C9457220C9484
:100080000000EF92FF920F931F937B018C0120E001
:1000900030E040E05FE40E94410388238CF0C80117
:1000A000B70120E030E040E05FE40E94B9010E9427
:1000B000A1039B01AC01205030404040504806C095
:1000C000C801B7010E94A1039B01AC01B901CA019B
:1000D0001F910F91FF90EF900895A0E0B0E0E3E74B
:1000E000F0E00C942022DC012B01FA019C9192306B
:1000F00008F439C1EB018881823008F433C19430AF
:1001000069F4843009F02FC111969C91119789816F
:10011000981709F428C1AAE6B0E025C1843009F493
:1001200021C18230A9F4923009F01DC19A01AD01BC
:1001300088E0EA010990AE01E90109929E0181502F
:10014000C1F7E201898111969C918923818308C1BD
:10015000923009F407C112962D903C901397EB0151
:100160008A819B811496AD90BD90CD90DC901797BD
:10017000EC80FD800E811F819101281B390BB90194
:1001800037FF04C066277727621B730B6032710547
:100190000CF061C0121613066CF537014801062EEB
:1001A00004C096948794779467940A94D2F721E0D8
:1001B00030E040E050E004C0220F331F441F551FC1
:1001C0006A95D2F721503040404050402E213F21C7
:1001D00040235123211531054105510521F021E02E
:1001E00030E040E050E079018A01E628F72808294C
:1001F00019293CC0232BD1F1260E371E35014601AB
:10020000062E04C096948794779467940A94D2F744
:1002100021E030E040E050E004C0220F331F441FD3
:10022000551F6A95D2F721503040404050402A2156
:100230003B214C215D21211531054105510521F05E
:1002400021E030E040E050E059016A01A628B728DB
:10025000C828D9280BC0821593052CF01C01AA24AC
:10026000BB24650103C0EE24FF24870111969C91F5
:10027000D20111968C91981709F445C0992339F051
:10028000A80197012A193B094C095D0906C0A6017E
:1002900095012E193F09400B510B57FD08C01182E3
:1002A0003382228224833583468357831DC081E0B5
:1002B00081833382228288279927DC01821B930B5A
:1002C000A40BB50B84839583A683B7830DC0220F3F
:1002D000331F441F551F24833583468357838281F0
:1002E000938101979383828324813581468157814D
:1002F000DA01C9010197A109B1098F5F9F4FAF4F83
:10030000BF4328F30BC0918333822282EA0CFB1C8B
:100310000C1D1D1DE482F5820683178383E0808314
:10032000248135814681578157FF1AC0C901AA2708
:1003300097FDA095BA2F81709070A070B0705695FF
:10034000479537952795822B932BA42BB52B848328
:100350009583A683B7838281938101969383828359
:10036000DF0101C0D201CD01CDB7DEB7E2E10C94CF
:100370003C22A0E2B0E0EFEBF1E00C942C22698388
:100380007A838B839C832D833E834F835887E9E058
:10039000EE2EF12CEC0EFD1ECE010196B7010E944F
:1003A000CA048E010F5E1F4FCE010596B8010E9450
:1003B000CA048A8991E089278A8BC701B801AE01F6
:1003C000475E5F4F0E946D000E94F503A096E6E035
:1003D0000C944822A0E2B0E0E0EFF1E00C942C2273
:1003E00069837A838B839C832D833E834F835887D5
:1003F000F9E0EF2EF12CEC0EFD1ECE010196B701B7
:100400000E94CA048E010F5E1F4FCE010596B801EF
:100410000E94CA04C701B801AE01475E5F4F0E9447
:100420006D000E94F503A096E6E00C944822A0E23D
:10043000B0E0EDE1F2E00C94202269837A838B83B3
:100440009C832D833E834F835887CE010196BE0146
:10045000675F7F4F0E94CA04CE010596BE016F5EA2
:100460007F4F0E94CA049985923088F08989823032
:10047000C8F0943019F4823051F404C0843029F467
:10048000923081F48AE690E0C6C0923049F420E0D0
:100490009A858A89981321E02A87CE010996BBC0E4
:1004A000823049F420E09A858A89981321E02A8BCA
:1004B000CE014196B0C02D843E844F8458886D880B
:1004C0007E888F88988CEE24FF248701AA24BB2481
:1004D000650140E050E060E070E0E0E0F0E0C10184
:1004E00081709070892BE9F0E60CF71C081D191D2E
:1004F0009A01AB012A0D3B1D4C1D5D1D80E090E073
:10050000A0E0B0E0E614F7040805190520F481E046
:1005100090E0A0E0B0E0BA01A901480F591F6A1F9E
:100520007B1FAA0CBB1CCC1CDD1C97FE08C081E005
:1005300090E0A0E0B0E0A82AB92ACA2ADB2A3196C6
:10054000E032F10549F0660C771C881C991C569422
:10055000479437942794C3CFFA85EA892B893C893D
:100560008B859C85280F391F2E5F3F4F17C0CA010E
:1005700081709070892B61F016950795F794E79438
:1005800080E090E0A0E0B0E8E82AF92A0A2B1B2BD3
:1005900076956795579547952F5F3F4F77FDE7CF46
:1005A0000CC0440F551F661F771F17FD4160EE0CEE
:1005B000FF1C001F111F21503040403090E05907B0
:1005C00090E0690790E4790760F32B8F3C8FDB01A3
:1005D000CA018F779070A070B07080349105A1052A
:1005E000B10561F447FD0AC0E114F10401051105EC
:1005F00029F0405C5F4F6F4F7F4F40781A8EFE1797
:1006000011F081E08A8F4D8F5E8F6F8F78A383E02A
:10061000898FCE0149960E94F503A096E2E10C94E1
:100620003C22A8E1B0E0E7E1F3E00C942C226983DE
:100630007A838B839C832D833E834F83588789E005
:10064000E82EF12CEC0EFD1ECE010196B7010E94A2
:10065000CA048E010F5E1F4FCE010596B8010E949D
:10066000CA048985823040F08989823028F0C70128
:10067000B8010E94420501C08FEF6896E6E00C9435
:100680004822A8E1B0E0E7E4F3E00C942C2269836F
:100690007A838B839C832D833E834F83588789E0A5
:1006A000E82EF12CEC0EFD1ECE010196B7010E9442
:1006B000CA048E010F5E1F4FCE010596B8010E943D
:1006C000CA048985823040F08989823028F0C701C8
:1006D000B8010E94420501C08FEF6896E6E00C94D5
:1006E0004822A8E1B0E0E7E7F3E00C942C2269830C
:1006F0007A838B839C832D833E834F83588789E045
:10070000E82EF12CEC0EFD1ECE010196B7010E94E1
:10071000CA048E010F5E1F4FCE010596B8010E94DC
:10072000CA048985823040F08989823028F0C70167
:10073000B8010E94420501C081E06896E6E00C9491
:100740004822ACE0B0E0E7EAF3E00C9430226983A1
:100750007A838B839C83CE010196BE016B5F7F4FB2
:100760000E94CA048D81823061F1823050F1843060
:1007700021F48E81882351F12EC02F81388537FDD9
:1007800020C06E812F3131051CF06623F9F023C0A3
:100790008EE190E0821B930B29853A854B855C8521
:1007A00004C056954795379527958A95D2F76623C5
:1007B000B1F050954095309521953F4F4F4F5F4F89
:1007C0000EC020E030E040E050E009C02FEF3FEFE6
:1007D0004FEF5FE704C020E030E040E050E8B901AF
:1007E000CA012C96E2E00C944C22DF92EF92FF9229
:1007F0000F931F93FC01E480F58006811781D1805F
:100800008081823048F480E090E0A0E1B0E0E82A06
:10081000F92A0A2B1B2BA5C0843009F49FC0823013
:1008200021F4EE24FF24870105C0E114F104010541
:10083000110519F4E0E0F0E096C0628173819FEF4A
:10084000623879070CF05BC022E83FEF261B370BBC
:100850002A3131052CF020E030E040E050E02AC0A1
:10086000B801A701022E04C0769567955795479564
:100870000A94D2F781E090E0A0E0B0E004C0880FD5
:10088000991FAA1FBB1F2A95D2F70197A109B10989
:100890008E219F21A023B1230097A105B10521F04E
:1008A00081E090E0A0E0B0E09A01AB01282B392B69
:1008B0004A2B5B2BDA01C9018F779070A070B07062
:1008C00080349105A105B10539F427FF09C0205CEA
:1008D0003F4F4F4F5F4F04C0215C3F4F4F4F5F4F23
:1008E000E0E0F0E02030A0E03A07A0E04A07A0E412
:1008F0005A0710F0E1E0F0E079018A0127C0603882
:10090000710564F5FB01E158FF4FD801C7018F77EE
:100910009070A070B07080349105A105B10539F4D4
:10092000E7FE0DC080E490E0A0E0B0E004C08FE3FB
:1009300090E0A0E0B0E0E80EF91E0A1F1B1F17FFB1
:1009400005C016950795F794E794319687E01695BC
:100950000795F794E7948A95D1F705C0EE24FF2414
:100960008701EFEFF0E06E2F679566276795902F70
:100970009F77D794DD24D7948E2F8695492F462BC9
:10098000582F5D29B701CA011F910F91FF90EF9079
:10099000DF900895FC01DB01408151812281622FAB
:1009A0006F7770E0221F2227221F9381892F880FE3
:1009B000822B282F30E0991F9927991F11969C931D
:1009C000119721153105A9F54115510561057105ED
:1009D00011F482E037C082E89FEF13969C938E93C8
:1009E00012979A01AB0167E0220F331F441F551F76
:1009F0006A95D1F783E08C930DC0220F331F441FFB
:100A0000551F12968D919C911397019713969C9365
:100A10008E931297203080E0380780E0480780E40A
:100A2000580758F314962D933D934D935C93179765
:100A300008952F3F310579F4411551056105710580
:100A400019F484E08C93089564FF03C081E08C93D3
:100A500012C01C9210C02F57304013963C932E9317
:100A6000129783E08C9387E0440F551F661F771F12
:100A70008A95D1F7706414964D935D936D937C9332
:100A8000179708951F93DC01FB019C91923008F4A5
:100A900047C08081823008F443C0943051F41196ED
:100AA0001C91843099F58181682F70E0611B710978
:100AB0003FC0843021F0923031F48230B9F181812D
:100AC000882389F12DC011961C9111978230F1F085
:100AD00081811817D9F412962D913C911397828138
:100AE00093818217930794F028173907BCF0149666
:100AF0008D919D910D90BC91A02D248135814681D1
:100B00005781281739074A075B0718F4112341F06A
:100B10000AC082179307A407B50740F4112319F000
:100B200061E070E005C06FEF7FEF02C060E070E051
:100B3000CB011F910895DF93CF93CDB7DEB783E04C
:100B400065E040E00E94CA0583E063E040E00E9467
:100B5000CA0583E067E040E00E94CA0583E066E0E2
:100B600040E00E94CA0583E065E041E00E94C606BD
:100B700083E063E041E00E94C60683E067E041E075
:100B80000E94C60683E066E041E00E94C606CF915F
:100B9000DF910895DF93CF93CDB7DEB727970FB6D8
:100BA000F894DEBF0FBECDBF89836A834B838B81F0
:100BB000813009F06FC08981282F30E03F832E8378
:100BC0008E819F818130910549F12E813F812230B4
:100BD00031052CF48E819F81009761F0CEC02E816B
:100BE0003F812230310571F18E819F8183309105E3
:100BF000E9F1C3C0AAE3B0E0EAE3F0E08081482F66
:100C00008A81282F30E081E090E0022E02C0880F18
:100C1000991F0A94E2F7842B8C93AFC0A7E3B0E04E
:100C2000E7E3F0E08081482F8A81282F30E081E0DF
:100C300090E0022E02C0880F991F0A94E2F7842BDD
:100C40008C939BC0A4E3B0E0E4E3F0E08081482F04
:100C50008A81282F30E081E090E0022E02C0880FC8
:100C6000991F0A94E2F7842B8C9387C0A1E3B0E02C
:100C7000E1E3F0E08081482F8A81282F30E081E095
:100C800090E0022E02C0880F991F0A94E2F7842B8D
:100C90008C9373C08981282F30E03D832C838C8115
:100CA0009D818130910559F12C813D8122303105A2
:100CB0002CF48C819D81009769F05FC02C813D816F
:100CC0002230310589F18C819D818330910509F4B1
:100CD00040C053C0AAE3B0E0EAE3F0E08081482FCF
:100CE0008A81282F30E081E090E0022E02C0880F38
:100CF000991F0A94E2F7809584238C933EC0A7E362
:100D0000B0E0E7E3F0E08081482F8A81282F30E0CF
:100D100081E090E0022E02C0880F991F0A94E2F74A
:100D2000809584238C9329C0A4E3B0E0E4E3F0E051
:100D30008081482F8A81282F30E081E090E0022EC8
:100D400002C0880F991F0A94E2F7809584238C9340
:100D500014C0A1E3B0E0E1E3F0E08081482F8A8194
:100D6000282F30E081E090E0022E02C0880F991F0A
:100D70000A94E2F7809584238C9327960FB6F89413
:100D8000DEBF0FBECDBFCF91DF910895DF93CF932C
:100D9000CDB7DEB727970FB6F894DEBF0FBECDBF35
:100DA00089836A834B838B81813009F06FC089818D
:100DB000282F30E03F832E838E819F8181309105E3
:100DC00049F12E813F81223031052CF48E819F81A3
:100DD000009761F0CEC02E813F812230310571F144
:100DE0008E819F8183309105E9F1C3C0ABE3B0E010
:100DF000EBE3F0E08081482F8A81282F30E081E00A
:100E000090E0022E02C0880F991F0A94E2F7842B0B
:100E10008C93AFC0A8E3B0E0E8E3F0E08081482F16
:100E20008A81282F30E081E090E0022E02C0880FF6
:100E3000991F0A94E2F7842B8C939BC0A5E3B0E042
:100E4000E5E3F0E08081482F8A81282F30E081E0BF
:100E500090E0022E02C0880F991F0A94E2F7842BBB
:100E60008C9387C0A2E3B0E0E2E3F0E08081482FFA
:100E70008A81282F30E081E090E0022E02C0880FA6
:100E8000991F0A94E2F7842B8C9373C08981282FD1
:100E900030E03D832C838C819D818130910559F117
:100EA0002C813D81223031052CF48C819D8100976D
:100EB00069F05FC02C813D812230310589F18C8140
:100EC0009D818330910509F440C053C0ABE3B0E08D
:100ED000EBE3F0E08081482F8A81282F30E081E029
:100EE00090E0022E02C0880F991F0A94E2F78095C5
:100EF00084238C933EC0A8E3B0E0E8E3F0E0808177
:100F0000482F8A81282F30E081E090E0022E02C035
:100F1000880F991F0A94E2F7809584238C9329C047
:100F2000A5E3B0E0E5E3F0E08081482F8A81282F37
:100F300030E081E090E0022E02C0880F991F0A94F1
:100F4000E2F7809584238C9314C0A2E3B0E0E2E33F
:100F5000F0E08081482F8A81282F30E081E090E006
:100F6000022E02C0880F991F0A94E2F7809584230D
:100F70008C9327960FB6F894DEBF0FBECDBFCF91EE
:100F8000DF910895DF93CF9300D000D0CDB7DEB7C7
:100F900089836A838981282F30E03C832B838B816E
:100FA0009C818130910549F12B813C8122303105B2
:100FB0002CF48B819C81009761F05AC02B813C817D
:100FC0002230310571F18B819C8183309105E9F1EB
:100FD0004FC0ABE3B0E0EBE3F0E08081482F8A81C3
:100FE000282F30E081E090E0022E02C0880F991F88
:100FF0000A94E2F784278C933BC0A8E3B0E0E8E3CF
:10100000F0E08081482F8A81282F30E081E090E055
:10101000022E02C0880F991F0A94E2F784278C934E
:1010200027C0A5E3B0E0E5E3F0E08081482F8A81A6
:10103000282F30E081E090E0022E02C0880F991F37
:101040000A94E2F784278C9313C0A2E3B0E0E2E3B2
:10105000F0E08081482F8A81282F30E081E090E005
:10106000022E02C0880F991F0A94E2F784278C93FE
:101070000F900F900F900F90CF91DF910895DF9315
:10108000CF9300D000D000D0CDB7DEB789836A837C
:101090008A81813099F58981282F30E03E832D8324
:1010A0008D819E8181309105D1F02D813E8122304C
:1010B00031052CF48D819E81009761F04DC02D810A
:1010C0003E812230310581F08D819E8183309105F2
:1010D00081F042C0EAE3F0E08FEF80833DC0E7E3B8
:1010E000F0E08FEF808338C0E4E3F0E08FEF80839F
:1010F00033C0E1E3F0E08FEF80832EC08981282F99
:1011000030E03C832B838B819C8181309105C9F039
:101110002B813C81223031052CF48B819C810097FE
:1011200061F01AC02B813C812230310571F08B8136
:101130009C818330910569F00FC0EAE3F0E01082F2
:101140000BC0E7E3F0E0108207C0E4E3F0E01082B8
:1011500003C0E1E3F0E0108226960FB6F894DEBFFC
:101160000FBECDBFCF91DF910895DF93CF9300D015
:1011700000D0CDB7DEB789836A838981282F30E01C
:101180003C832B838B819C8181309105D1F02B8115
:101190003C81223031052CF48B819C81009761F0D9
:1011A0001EC02B813C812230310581F08B819C81D6
:1011B0008330910581F013C0EBE3F0E08A818083F6
:1011C0000EC0E8E3F0E08A81808309C0E5E3F0E047
:1011D0008A81808304C0E2E3F0E08A8180830F90FB
:1011E0000F900F900F90CF91DF910895DF93CF93E1
:1011F00000D000D00F92CDB7DEB789836A834B83CE
:101200008981282F30E03D832C838C819D81813022
:10121000910501F12C813D81223031052CF48C8126
:101220009D81009761F036C02C813D8122303105CF
:10123000E1F08C819D818330910511F12BC0ABE3EE
:10124000B0E0EBE3F0E090818B8198238A81892BD9
:101250008C9320C0A8E3B0E0E8E3F0E090818B81BC
:1012600098238A81892B8C9315C0A5E3B0E0E5E330
:10127000F0E090818B8198238A81892B8C930AC01E
:10128000A2E3B0E0E2E3F0E090818B8198238A81D1
:10129000892B8C930F900F900F900F900F90CF9100
:1012A000DF910895DF93CF9300D000D00F92CDB798
:1012B000DEB789836A834B838981282F30E03D83A1
:1012C0002C838C819D818130910501F12C813D81A0
:1012D000223031052CF48C819D81009761F036C05D
:1012E0002C813D8122303105E1F08C819D8183305C
:1012F000910511F12BC0ABE3B0E0EAE3F0E090819F
:101300008B8198238A81892B8C9320C0A8E3B0E03D
:10131000E7E3F0E090818B8198238A81892B8C937D
:1013200015C0A5E3B0E0E4E3F0E090818B81982361
:101330008A81892B8C930AC0A2E3B0E0E1E3F0E05C
:1013400090818B8198238A81892B8C930F900F90A9
:101350000F900F900F90CF91DF910895DF93CF936F
:1013600000D000D00F92CDB7DEB78A836B838A811D
:10137000282F30E03D832C834C815D814130510525
:10138000B1F18C819D818230910534F42C813D81B5
:101390002115310571F085C04C815D8142305105C8
:1013A00009F443C08C819D818330910509F45BC0B1
:1013B00078C0E9E3F0E08081482F50E08B81282F4E
:1013C00030E081E090E002C0880F991F2A95E2F793
:1013D0009A01282339238B81882F90E0A90102C02C
:1013E000559547958A95E2F7CA01898375C0E6E36A
:1013F000F0E08081482F50E08B81282F30E081E0A1
:1014000090E002C0880F991F2A95E2F79A012823DD
:1014100039238B81882F90E0A90102C0559547950B
:101420008A95E2F7CA01898357C0E3E3F0E080813F
:10143000482F50E08B81282F30E081E090E002C0FF
:10144000880F991F2A95E2F79A01282339238B8167
:10145000882F90E0A90102C0559547958A95E2F73B
:10146000CA01898339C0E0E3F0E08081482F50E071
:101470008B81282F30E081E090E002C0880F991F17
:101480002A95E2F79A01282339238B81882F90E04F
:10149000A90102C0559547958A95E2F7CA0189834B
:1014A0001BC08A81482F50E08B81282F30E081E0DB
:1014B00090E002C0880F991F2A95E2F79A0128232D
:1014C00039238B81882F90E0A90102C0559547955B
:1014D0008A95E2F7CA01898389810F900F900F9056
:1014E0000F900F90CF91DF910895DF93CF9300D0AD
:1014F00000D000D0CDB7DEB789836A835C834B838D
:101500008981282F30E03E832D834D815E814130DB
:101510005105C1F18D819E818230910534F42D8178
:101520003E812115310571F08CC04D815E814230C4
:10153000510509F447C08D819E818330910509F4DE
:1015400061C07FC0EAE3F0E08081482F50E08A81EB
:10155000282F30E081E090E002C0880F991F2A9583
:10156000E2F79A01282339238A81882F90E0A90184
:1015700002C0559547958A95E2F7CA01EB81FC8137
:1015800080835FC0E7E3F0E08081482F50E08A81EC
:10159000282F30E081E090E002C0880F991F2A9543
:1015A000E2F79A01282339238A81882F90E0A90144
:1015B00002C0559547958A95E2F7CA01EB81FC81F7
:1015C00080833FC0E4E3F0E08081482F50E08A81CF
:1015D000282F30E081E090E002C0880F991F2A9503
:1015E000E2F79A01282339238A81882F90E0A90104
:1015F00002C0559547958A95E2F7CA01EB81FC81B7
:1016000080831FC0E1E3F0E08081482F50E08A81B1
:10161000282F30E081E090E002C0880F991F2A95C2
:10162000E2F79A01282339238A81882F90E0A901C3
:1016300002C0559547958A95E2F7CA01EB81FC8176
:10164000808326960FB6F894DEBF0FBECDBFCF9134
:10165000DF910895DF93CF93CDB7DEB780E063E0ED
:1016600041E00E94CA0580E062E041E00E94CA05B4
:1016700081E065E041E00E94CA0581E066E041E06A
:101680000E94CA0581E060E041E00E94CA0581E055
:1016900061E041E00E94CA0581E062E041E00E9411
:1016A000CA0581E064E041E00E94CA0580E063E091
:1016B00041E00E94C60680E062E041E00E94C6066A
:1016C00081E065E041E00E94C60681E066E041E01D
:1016D0000E94C60681E060E040E00E94C60681E00C
:1016E00061E040E00E94C60681E062E040E00E94C6
:1016F000C60681E064E040E00E94C606CF91DF911B
:101700000895DF93CF9300D000D000D0CDB7DEB7DF
:1017100089836A838981282F30E03E832D838D81E0
:101720009E818430910509F459C02D813E81253078
:101730003105DCF48D819E818130910509F43CC036
:101740002D813E81223031052CF48D819E810097C0
:1017500069F167C02D813E812230310599F18D817B
:101760009E8183309105A1F15CC02D813E8127309F
:10177000310509F445C08D819E81883091055CF466
:101780002D813E812530310579F18D819E81863014
:10179000910581F146C02D813E8128303105B1F19E
:1017A0008D819E8189309105B9F13BC081E060E077
:1017B00048EE0E94F60835C081E061E048EE0E94E4
:1017C000F6082FC081E062E048EE0E94F60829C0CA
:1017D00081E063E048EE0E94F60823C081E064E007
:1017E00048EE0E94F6081DC081E065E048EE0E94C8
:1017F000F60817C081E066E048EE0E94F60811C0C6
:1018000081E067E048EE0E94F6080BC081E060E1ED
:1018100048EE0E94F60805C081E061E148EE0E94B2
:10182000F6088A81282F30E03C832B838B819C81B2
:101830008230910509F12B813C812330310534F44C
:101840008B819C818130910561F036C02B813C8178
:1018500023303105E1F08B819C818430910511F1B9
:101860002BC080E064E043EF0E94F60881E060E670
:101870004FE90E94F60820C080E068E043EF0E9434
:10188000F60881E060E64FE90E94F60815C080E0A6
:101890006CE043EF0E94F60881E060E44FE90E94AB
:1018A000F6080AC080E06CE043EF0E94F60881E091
:1018B00060E24FE90E94F60826960FB6F894DEBF64
:1018C0000FBECDBFCF91DF9108950F931F93DF938C
:1018D000CF93CDB7DEB7C058D0400FB6F894DEBF77
:1018E0000FBECDBFFE01E158FF4F91838083FE0103
:1018F000E158FF4F808191818A30910540F4FE01CB
:10190000E158FF4F808161E00E94810BB9C5FE0163
:10191000E158FF4F808191818436910508F083C1A1
:10192000FE01E158FF4F808191812AE030E0B9014A
:101930000E940C2261E00E94810BFE01E558FF4FDE
:1019400080E090E0A0E0B0E480839183A283B38341
:101950008E0109581F4FFE01E558FF4F60817181CC
:101960008281938120E030E04AE755E40E9417022B
:10197000DC01CB01F80180839183A283B383FE0154
:10198000E958FF4F608171818281938120E030E0CE
:1019900040E85FE30E947103882344F4FE01EB58A2
:1019A000FF4F81E090E09183808364C0FE01E9589D
:1019B000FF4F608171818281938120E03FEF4FE78B
:1019C00057E40E94110318160CF043C0FE01E558BD
:1019D000FF4F608171818281938120E030E040E29D
:1019E00051E40E941702DC01CB018E010B581F4FFE
:1019F000BC01CD010E944100DC01CB01F8019183C3
:101A000080831FC0FE01ED58FF4F80E991E0918374
:101A10008083FE01ED58FF4F808191810197F1F79E
:101A2000FE01ED58FF4F91838083DE01AB58BF4F1D
:101A3000FE01EB58FF4F80819181019711969C9395
:101A40008E93FE01EB58FF4F808191810097D1F674
:101A500027C08E010B581F4FFE01E958FF4F6081D0
:101A60007181828193810E944100DC01CB01F801E8
:101A700091838083DE01AF58BF4FFE01EB58FF4FCB
:101A8000808191818D939C93FE01EF58FF4F80815F
:101A900091810197F1F7FE01EF58FF4F9183808309
:101AA000FE01E158FF4F808191812AE030E0B901C9
:101AB0000E940C22CB0162E00E94810BFE01E359DF
:101AC000FF4F80E090E0A0E0B0E480839183A283A8
:101AD000B3838E0107591F4FFE01E359FF4F608109
:101AE00071818281938120E030E04AE755E40E94D1
:101AF0001702DC01CB01F80180839183A283B383B9
:101B0000FE01E759FF4F608171818281938120E05E
:101B100030E040E85FE30E947103882344F4FE0153
:101B2000E959FF4F81E090E09183808364C0FE011A
:101B3000E759FF4F608171818281938120E03FEFFF
:101B40004FE757E40E94110318160CF043C0FE0142
:101B5000E359FF4F608171818281938120E030E001
:101B600040E251E40E941702DC01CB018E010959C9
:101B70001F4FBC01CD010E944100DC01CB01F801E7
:101B8000918380831FC0FE01EB59FF4F80E991E0F4
:101B900091838083FE01EB59FF4F808191810197F2
:101BA000F1F7FE01EB59FF4F91838083DE01A959C4
:101BB000BF4FFE01E959FF4F808191810197119636
:101BC0009C938E93FE01E959FF4F8081918100978C
:101BD000D1F656C48E0109591F4FFE01E759FF4F38
:101BE00060817181828193810E944100DC01CB017F
:101BF000F80191838083DE01AD59BF4FFE01E959A1
:101C0000FF4F8081918111969C938E93FE01ED5937
:101C1000FF4F808191810197F1F7FE01ED59FF4F50
:101C2000918380832DC4FE01E158FF4F8081918113
:101C3000F3E0883E9F0708F01AC2FE01E158FF4F0B
:101C4000808191812AE030E0B9010E940C2261E09C
:101C50000E94810BFE01E15AFF4F80E090E0A0E07E
:101C6000B0E480839183A283B3838E01055A1F4F12
:101C7000FE01E15AFF4F608171818281938120E0F2
:101C800030E04AE755E40E941702DC01CB01F8017D
:101C900080839183A283B383FE01E55AFF4F608165
:101CA00071818281938120E030E040E85FE30E940F
:101CB0007103882344F4FE01E75AFF4F81E090E06E
:101CC0009183808364C0FE01E55AFF4F608171817A
:101CD0008281938120E03FEF4FE757E40E94110398
:101CE00018160CF043C0FE01E15AFF4F608171816C
:101CF0008281938120E030E040E251E40E941702AB
:101D0000DC01CB018E01075A1F4FBC01CD010E949F
:101D10004100DC01CB01F801918380831FC0FE01EB
:101D2000E95AFF4F80E991E091838083FE01E95AEF
:101D3000FF4F808191810197F1F7FE01E95AFF4F32
:101D400091838083DE01A75ABF4FFE01E75AFF4F00
:101D500080819181019711969C938E93FE01E75AA1
:101D6000FF4F808191810097D1F627C08E01075ADD
:101D70001F4FFE01E55AFF4F60817181828193817F
:101D80000E944100DC01CB01F80191838083DE01D8
:101D9000AB5ABF4FFE01E75AFF4F808191818D936F
:101DA0009C93FE01EB5AFF4F808191810197F1F7DF
:101DB000FE01EB5AFF4F91838083FE01E158FF4FF4
:101DC000808191812AE030E0B9010E940C22CB0190
:101DD0002AE030E0B9010E940C2262E00E94810BEF
:101DE000FE01EF5AFF4F80E090E0A0E0B0E4808376
:101DF0009183A283B3838E01035B1F4FFE01EF5AD1
:101E0000FF4F608171818281938120E030E04AE759
:101E100055E40E941702DC01CB01F8018083918315
:101E2000A283B383FE01E35BFF4F608171818281F6
:101E3000938120E030E040E85FE30E947103882353
:101E400044F4FE01E55BFF4F81E090E091838083E5
:101E500064C0FE01E35BFF4F6081718182819381E9
:101E600020E03FEF4FE757E40E94110318160CF0F3
:101E700043C0FE01EF5AFF4F6081718182819381DF
:101E800020E030E040E251E40E941702DC01CB0187
:101E90008E01055B1F4FBC01CD010E944100DC019A
:101EA000CB01F801918380831FC0FE01E75BFF4FE8
:101EB00080E991E091838083FE01E75BFF4F8081A1
:101EC00091810197F1F7FE01E75BFF4F91838083DA
:101ED000DE01A55BBF4FFE01E55BFF4F8081918175
:101EE000019711969C938E93FE01E55BFF4F8081D5
:101EF00091810097D1F627C08E01055B1F4FFE012F
:101F0000E35BFF4F60817181828193810E94410078
:101F1000DC01CB01F80191838083DE01A95BBF4F17
:101F2000FE01E55BFF4F808191818D939C93FE01C3
:101F3000E95BFF4F808191810197F1F7FE01E95B39
:101F4000FF4F91838083FE01E158FF4F8081918193
:101F500024E630E0B9010E940C22CB0163E00E942C
:101F6000810BFE01ED5BFF4F80E090E0A0E0B0E46C
:101F700080839183A283B3838E01015C1F4FFE0196
:101F8000ED5BFF4F608171818281938120E030E0C1
:101F90004AE755E40E941702DC01CB01F801808377
:101FA0009183A283B383FE01FF9660817181828158
:101FB000938120E030E040E85FE30E9471038823D2
:101FC0002CF481E090E09EAF8DAF46C0FE01FF96FD
:101FD000608171818281938120E03FEF4FE757E478
:101FE0000E941103181664F5FE01ED5BFF4F60813E
:101FF00071818281938120E030E040E251E40E94CF
:102000001702DC01CB01BC01CD010E944100DC01C3
:10201000CB019EAF8DAF0FC080E991E09CAF8BAF3D
:102020008BAD9CAD0197F1F79CAF8BAF8DAD9EADA5
:1020300001979EAF8DAF8DAD9EAD009769F720C221
:10204000FE01FF9660817181828193810E9441002F
:10205000DC01CB019EAF8DAF8DAD9EAD9AAF89AF48
:1020600089AD9AAD0197F1F79AAF89AF09C2FE0128
:10207000E158FF4F808191812AE030E0B9010E9450
:102080000C2261E00E94810B80E090E0A0E0B0E4CF
:102090008DAB9EABAFABB8AF6DA97EA98FA998AD44
:1020A00020E030E04AE755E40E941702DC01CB0152
:1020B00089AB9AABABABBCAB69A97AA98BA99CA93C
:1020C00020E030E040E85FE30E94710388232CF4B5
:1020D00081E090E098AB8FA73FC069A97AA98BA94E
:1020E0009CA920E03FEF4FE757E40E941103181628
:1020F0004CF56DA97EA98FA998AD20E030E040E2B3
:1021000051E40E941702DC01CB01BC01CD010E9409
:102110004100DC01CB0198AB8FA70FC080E991E0B3
:102120009EA78DA78DA59EA50197F1F79EA78DA7C8
:102130008FA598A9019798AB8FA78FA598A900970D
:1021400069F714C069A97AA98BA99CA90E944100CA
:10215000DC01CB0198AB8FA78FA598A99CA78BA773
:102160008BA59CA50197F1F79CA78BA7FE01E158D1
:10217000FF4F808191812AE030E0B9010E940C225A
:10218000CB012AE030E0B9010E940C2262E00E94FB
:10219000810B80E090E0A0E0B0E48FA398A7A9A70E
:1021A000BAA76FA178A589A59AA520E030E04AE7F3
:1021B00055E40E941702DC01CB018BA39CA3ADA3C5
:1021C000BEA36BA17CA18DA19EA120E030E040E8E0
:1021D0005FE30E94710388232CF481E090E09AA3CE
:1021E00089A33FC06BA17CA18DA19EA120E03FEF00
:1021F0004FE757E40E94110318164CF56FA178A51C
:1022000089A59AA520E030E040E251E40E9417023F
:10221000DC01CB01BC01CD010E944100DC01CB01FE
:102220009AA389A30FC080E991E098A38F8F8F8D27
:1022300098A10197F1F798A38F8F89A19AA101978F
:102240009AA389A389A19AA1009769F714C06BA1E9
:102250007CA18DA19EA10E944100DC01CB019AA32B
:1022600089A389A19AA19E8F8D8F8D8D9E8D0197B7
:10227000F1F79E8F8D8FFE01E158FF4F8081918194
:1022800024E630E0B9010E940C22CB012AE030E0C4
:10229000B9010E940C2263E00E94810B80E090E073
:1022A000A0E0B0E4898F9A8FAB8FBC8F698D7A8D57
:1022B0008B8D9C8D20E030E04AE755E40E941702A8
:1022C000DC01CB018D8B9E8BAF8BB88F6D897E89A6
:1022D0008F89988D20E030E040E85FE30E94710331
:1022E00088232CF481E090E09C8B8B8B3FC06D8920
:1022F0007E898F89988D20E03FEF4FE757E40E9459
:10230000110318164CF5698D7A8D8B8D9C8D20E00C
:1023100030E040E251E40E941702DC01CB01BC0135
:10232000CD010E944100DC01CB019C8B8B8B0FC047
:1023300080E991E09A8B898B89899A890197F1F7D5
:102340009A8B898B8B899C8901979C8B8B8B8B8932
:102350009C89009769F714C06D897E898F89988D53
:102360000E944100DC01CB019C8B8B8B8B899C896B
:10237000988B8F878F8598890197F1F7988B8F8736
:10238000FE01E158FF4F8081918128EE33E0B901D1
:102390000E940C22CB0164E00E94810B80E090E05F
:1023A000A0E0B0E48B879C87AD87BE876B857C857A
:1023B0008D859E8520E030E04AE755E40E941702B3
:1023C000DC01CB018F839887A987BA876F817885D5
:1023D00089859A8520E030E040E85FE30E94710340
:1023E00088232CF481E090E09E838D833FC06F8131
:1023F000788589859A8520E03FEF4FE757E40E9472
:10240000110318164CF56B857C858D859E8520E023
:1024100030E040E251E40E941702DC01CB01BC0134
:10242000CD010E944100DC01CB019E838D830FC052
:1024300080E991E09C838B838B819C810197F1F7EC
:102440009C838B838D819E8101979E838D838D815B
:102450009E81009769F714C06F81788589859A8578
:102460000E944100DC01CB019E838D838D819E8182
:102470009A83898389819A810197F1F79A83898365
:10248000C058DF4F0FB6F894DEBF0FBECDBFCF915F
:10249000DF911F910F9108950F931F93DF93CF93B7
:1024A000CDB7DEB7C455D0400FB6F894DEBF0FBE2F
:1024B000CDBF80E062E041E00E94CA0580E063E0B9
:1024C00041E00E94CA0581E060E041E00E94CA0547
:1024D00081E061E041E00E94CA0581E062E041E004
:1024E0000E94CA0581E064E041E00E94CA05FE0145
:1024F000EF5AFF4F80E090E0A0E2B2E48083918346
:10250000A283B3838E01035B1F4FFE01EF5AFF4F7F
:10251000608171818281938120E030E04AE755E457
:102520000E941702DC01CB01F80180839183A28312
:10253000B383FE01E35BFF4F6081718182819381F0
:1025400020E030E040E85FE30E947103882344F418
:10255000FE01E55BFF4F81E090E09183808364C0E2
:10256000FE01E35BFF4F608171818281938120E0F6
:102570003FEF4FE757E40E94110318160CF043C0D9
:10258000FE01EF5AFF4F608171818281938120E0CB
:1025900030E040E251E40E941702DC01CB018E01E1
:1025A000055B1F4FBC01CD010E944100DC01CB0146
:1025B000F801918380831FC0FE01E75BFF4F80E934
:1025C00091E091838083FE01E75BFF4F80819181E1
:1025D0000197F1F7FE01E75BFF4F91838083DE01F6
:1025E000A55BBF4FFE01E55BFF4F808191810197A5
:1025F00011969C938E93FE01E55BFF4F8081918144
:102600000097D1F627C08E01055B1F4FFE01E35BEB
:10261000FF4F60817181828193810E944100DC01C2
:10262000CB01F80191838083DE01A95BBF4FFE01DE
:10263000E55BFF4F808191818D939C93FE01E95B67
:10264000FF4F808191810197F1F7FE01E95BFF4F18
:102650009183808381E060E040E00E94C60681E0D3
:1026600061E041E00E94C60681E062E040E00E9435
:10267000C60681E064E040E00E94C60680E062E0B9
:1026800041E00E94C606FE01ED5BFF4F80E090E056
:10269000A0E0B0E480839183A283B3838E01015CC8
:1026A0001F4FFE01ED5BFF4F60817181828193813D
:1026B00020E030E04AE755E40E941702DC01CB013C
:1026C000F80180839183A283B383FE01FF9660812A
:1026D00071818281938120E030E040E85FE30E94D5
:1026E000710388232CF481E090E09EAF8DAF46C04B
:1026F000FE01FF96608171818281938120E03FEF2E
:102700004FE757E40E941103181664F5FE01ED5BD4
:10271000FF4F608171818281938120E030E040E24F
:1027200051E40E941702DC01CB01BC01CD010E94E3
:102730004100DC01CB019EAF8DAF0FC080E991E07D
:102740009CAF8BAF8BAD9CAD0197F1F79CAF8BAF7E
:102750008DAD9EAD01979EAF8DAF8DAD9EAD0097B7
:1027600069F716C0FE01FF966081718182819381B5
:102770000E944100DC01CB019EAF8DAF8DAD9EADBF
:102780009AAF89AF89AD9AAD0197F1F79AAF89AF4A
:1027900080E062E040E00E94C60680E090E0A0E0B9
:1027A000B0E48DAB9EABAFABB8AF6DA97EA98FA9DE
:1027B00098AD20E030E04AE755E40E941702DC01C2
:1027C000CB0189AB9AABABABBCAB69A97AA98BA99E
:1027D0009CA920E030E040E85FE30E947103882379
:1027E0002CF481E090E098AB8FA73FC069A97AA94B
:1027F0008BA99CA920E03FEF4FE757E40E9411030B
:1028000018164CF56DA97EA98FA998AD20E030E08F
:1028100040E251E40E941702DC01CB01BC01CD0172
:102820000E944100DC01CB0198AB8FA70FC080E96B
:1028300091E09EA78DA78DA59EA50197F1F79EA774
:102840008DA78FA598A9019798AB8FA78FA598A959
:10285000009769F714C069A97AA98BA99CA90E945D
:102860004100DC01CB0198AB8FA78FA598A99CA74D
:102870008BA78BA59CA50197F1F79CA78BA788E256
:102880000E941F1880E090E0A0E8BFE38FA398A704
:10289000A9A7BAA76FA178A589A59AA520E030E0DD
:1028A0004AE755E40E941702DC01CB018BA39CA3ED
:1028B000ADA3BEA36BA17CA18DA19EA120E030E0C1
:1028C00040E85FE30E94710388232CF481E090E0EC
:1028D0009AA389A33FC06BA17CA18DA19EA120E0FA
:1028E0003FEF4FE757E40E94110318164CF56FA114
:1028F00078A589A59AA520E030E040E251E40E9445
:102900001702DC01CB01BC01CD010E944100DC01BA
:10291000CB019AA389A30FC080E991E098A38F8F80
:102920008F8D98A10197F1F798A38F8F89A19AA114
:1029300001979AA389A389A19AA1009769F714C066
:102940006BA17CA18DA19EA10E944100DC01CB0165
:102950009AA389A389A19AA19E8F8D8F8D8D9E8D1B
:102960000197F1F79E8F8D8F8CE00E941F1880E0F9
:1029700090E0A0E8BFE3898F9A8FAB8FBC8F698D01
:102980007A8D8B8D9C8D20E030E04AE755E40E94E3
:102990001702DC01CB018D8B9E8BAF8BB88F6D89BD
:1029A0007E898F89988D20E030E040E85FE30E94C7
:1029B000710388232CF481E090E09C8B8B8B3FC0CB
:1029C0006D897E898F89988D20E03FEF4FE757E42E
:1029D0000E94110318164CF5698D7A8D8B8D9C8D94
:1029E00020E030E040E251E40E941702DC01CB011C
:1029F000BC01CD010E944100DC01CB019C8B8B8B83
:102A00000FC080E991E09A8B898B89899A89019717
:102A1000F1F79A8B898B8B899C8901979C8B8B8B87
:102A20008B899C89009769F714C06D897E898F898D
:102A3000988D0E944100DC01CB019C8B8B8B8B8994
:102A40009C89988B8F878F8598890197F1F7988B50
:102A50008F8781E00E941F1880E090E0A0E0B0E442
:102A60008B879C87AD87BE876B857C858D859E8592
:102A700020E030E04AE755E40E941702DC01CB0178
:102A80008F839887A987BA876F81788589859A858A
:102A900020E030E040E85FE30E94710388232CF4DB
:102AA00081E090E09E838D833FC06F81788589852A
:102AB0009A8520E03FEF4FE757E40E941103181674
:102AC0004CF56B857C858D859E8520E030E040E26D
:102AD00051E40E941702DC01CB01BC01CD010E9430
:102AE0004100DC01CB019E838D830FC080E991E022
:102AF0009C838B838B819C810197F1F79C838B83D3
:102B00008D819E8101979E838D838D819E8100970B
:102B100069F714C06F81788589859A850E94410084
:102B2000DC01CB019E838D838D819E819A83898375
:102B300089819A810197F1F79A83898386E00E94BF
:102B40001F1880E80E941F18CC5ADF4F0FB6F89468
:102B5000DEBF0FBECDBFCF91DF911F910F910895C2
:102B6000DF93CF93CDB7DEB7E9970FB6F894DEBF0A
:102B70000FBECDBF89AF80E063E041E00E94C60692
:102B800089AD982F991F9927991F81E064E0492FFB
:102B90000E94C60689AD882F90E080749070082E40
:102BA000892F000C881F990B000C881F991F982FE4
:102BB00081E062E0492F0E94C60689AD882F90E02F
:102BC0008072907095958795959587959595879541
:102BD0009595879595958795982F81E061E0492F88
:102BE0000E94C60689AD882F90E0807190709595FF
:102BF0008795959587959595879595958795982F20
:102C000081E060E0492F0E94C60680E062E041E07A
:102C10000E94C60680E090E0A0E0B0E48DAB9EABE1
:102C2000AFABB8AF6DA97EA98FA998AD20E030E019
:102C30004AE755E40E941702DC01CB0189AB9AAB4D
:102C4000ABABBCAB69A97AA98BA99CA920E030E009
:102C500040E85FE30E94710388232CF481E090E058
:102C600098AB8FA73FC069A97AA98BA99CA920E03E
:102C70003FEF4FE757E40E94110318164CF56DA97A
:102C80007EA98FA998AD20E030E040E251E40E9497
:102C90001702DC01CB01BC01CD010E944100DC0127
:102CA000CB0198AB8FA70FC080E991E09EA78DA7BD
:102CB0008DA59EA50197F1F79EA78DA78FA598A931
:102CC000019798AB8FA78FA598A9009769F714C0B3
:102CD00069A97AA98BA99CA90E944100DC01CB01BA
:102CE00098AB8FA78FA598A99CA78BA78BA59CA510
:102CF0000197F1F79CA78BA780E062E040E00E947B
:102D0000C60680E090E0A0E0B0E48FA398A7A9A752
:102D1000BAA76FA178A589A59AA520E030E04AE777
:102D200055E40E941702DC01CB018BA39CA3ADA349
:102D3000BEA36BA17CA18DA19EA120E030E040E864
:102D40005FE30E94710388232CF481E090E09AA352
:102D500089A33FC06BA17CA18DA19EA120E03FEF84
:102D60004FE757E40E94110318164CF56FA178A5A0
:102D700089A59AA520E030E040E251E40E941702C4
:102D8000DC01CB01BC01CD010E944100DC01CB0183
:102D90009AA389A30FC080E991E098A38F8F8F8DAC
:102DA00098A10197F1F798A38F8F89A19AA1019714
:102DB0009AA389A389A19AA1009769F714C06BA16E
:102DC0007CA18DA19EA10E944100DC01CB019AA3B0
:102DD00089A389A19AA19E8F8D8F8D8D9E8D01973C
:102DE000F1F79E8F8D8F89AD882F90E0887090705D
:102DF000959587959595879595958795982F81E0D9
:102E000064E0492F0E94C60689AD882F90E0847047
:102E100090709595879595958795982F81E062E0BC
:102E2000492F0E94C60689AD882F90E0827090706D
:102E300095958795982F81E061E0492F0E94C606FD
:102E400089AD982F917081E060E0492F0E94C606FD
:102E500080E062E041E00E94C60680E090E0A0E0F1
:102E6000B0E4898F9A8FAB8FBC8F698D7A8D8B8DF3
:102E70009C8D20E030E04AE755E40E941702DC0117
:102E8000CB018D8B9E8BAF8BB88F6D897E898F899F
:102E9000988D20E030E040E85FE30E9471038823D2
:102EA0002CF481E090E09C8B8B8B3FC06D897E89F8
:102EB0008F89988D20E03FEF4FE757E40E94110380
:102EC00018164CF5698D7A8D8B8D9C8D20E030E045
:102ED00040E251E40E941702DC01CB01BC01CD01AC
:102EE0000E944100DC01CB019C8B8B8B0FC080E9E1
:102EF00091E09A8B898B89899A890197F1F79A8B4E
:102F0000898B8B899C8901979C8B8B8B8B899C8966
:102F1000009769F714C06D897E898F89988D0E940A
:102F20004100DC01CB019C8B8B8B8B899C89988B1E
:102F30008F878F8598890197F1F7988B8F8780E02D
:102F400062E040E00E94C60680E090E0A0E0B0E4CD
:102F50008B879C87AD87BE876B857C858D859E859D
:102F600020E030E04AE755E40E941702DC01CB0183
:102F70008F839887A987BA876F81788589859A8595
:102F800020E030E040E85FE30E94710388232CF4E6
:102F900081E090E09E838D833FC06F817885898535
:102FA0009A8520E03FEF4FE757E40E94110318167F
:102FB0004CF56B857C858D859E8520E030E040E278
:102FC00051E40E941702DC01CB01BC01CD010E943B
:102FD0004100DC01CB019E838D830FC080E991E02D
:102FE0009C838B838B819C810197F1F79C838B83DE
:102FF0008D819E8101979E838D838D819E81009717
:1030000069F714C06F81788589859A850E9441008F
:10301000DC01CB019E838D838D819E819A83898380
:1030200089819A810197F1F79A838983E9960FB68E
:10303000F894DEBF0FBECDBFCF91DF910895DF932F
:10304000CF93CDB7DEB7E9970FB6F894DEBF0FBECA
:10305000CDBF89AF80E063E040E00E94C60689AD45
:10306000982F991F9927991F81E064E0492F0E94AA
:10307000C60689AD882F90E080749070082E892F45
:10308000000C881F990B000C881F991F982F81E056
:1030900062E0492F0E94C60689AD882F90E08072B9
:1030A0009070959587959595879595958795959524
:1030B000879595958795982F81E061E0492F0E942B
:1030C000C60689AD882F90E08071907095958795A0
:1030D000959587959595879595958795982F81E0F6
:1030E00060E0492F0E94C60680E062E041E00E9455
:1030F000C60680E090E0A0E0B0E48DAB9EABAFAB45
:10310000B8AF6DA97EA98FA998AD20E030E04AE75D
:1031100055E40E941702DC01CB0189AB9AABABAB43
:10312000BCAB69A97AA98BA99CA920E030E040E852
:103130005FE30E94710388232CF481E090E098AB58
:103140008FA73FC069A97AA98BA99CA920E03FEF6E
:103150004FE757E40E94110318164CF56DA97EA99C
:103160008FA998AD20E030E040E251E40E941702C0
:10317000DC01CB01BC01CD010E944100DC01CB018F
:1031800098AB8FA70FC080E991E09EA78DA78DA572
:103190009EA50197F1F79EA78DA78FA598A90197E6
:1031A00098AB8FA78FA598A9009769F714C069A954
:1031B0007AA98BA99CA90E944100DC01CB0198ABA4
:1031C0008FA78FA598A99CA78BA78BA59CA50197D6
:1031D000F1F79CA78BA780E062E040E00E94C60662
:1031E00080E090E0A0E0B0E48FA398A7A9A7BAA7D9
:1031F0006FA178A589A59AA520E030E04AE755E4BB
:103200000E941702DC01CB018BA39CA3ADA3BEA33C
:103210006BA17CA18DA19EA120E030E040E85FE39E
:103220000E94710388232CF481E090E09AA389A383
:103230003FC06BA17CA18DA19EA120E03FEF4FE795
:1032400057E40E94110318164CF56FA178A589A5C3
:103250009AA520E030E040E251E40E941702DC0130
:10326000CB01BC01CD010E944100DC01CB019AA33E
:1032700089A30FC080E991E098A38F8F8F8D98A1CB
:103280000197F1F798A38F8F89A19AA101979AA32B
:1032900089A389A19AA1009769F714C06BA17CA1A9
:1032A0008DA19EA10E944100DC01CB019AA389A3BC
:1032B00089A19AA19E8F8D8F8D8D9E8D0197F1F79B
:1032C0009E8F8D8F89AD882F90E088709070959536
:1032D00087959595879595958795982F81E064E0DA
:1032E000492F0E94C60689AD882F90E084709070A7
:1032F0009595879595958795982F81E062E0492F60
:103300000E94C60689AD882F90E0827090709595D6
:103310008795982F81E061E0492F0E94C60689AD0C
:10332000982F917081E060E0492F0E94C60680E0EE
:1033300062E041E00E94C60680E090E0A0E0B0E4D8
:10334000898F9A8FAB8FBC8F698D7A8D8B8D9C8D79
:1033500020E030E04AE755E40E941702DC01CB018F
:103360008D8B9E8BAF8BB88F6D897E898F89988D61
:1033700020E030E040E85FE30E94710388232CF4F2
:1033800081E090E09C8B8B8B3FC06D897E898F891B
:10339000988D20E03FEF4FE757E40E941103181685
:1033A0004CF5698D7A8D8B8D9C8D20E030E040E26C
:1033B00051E40E941702DC01CB01BC01CD010E9447
:1033C0004100DC01CB019C8B8B8B0FC080E991E02D
:1033D0009A8B898B89899A890197F1F79A8B898BC6
:1033E0008B899C8901979C8B8B8B8B899C890097FF
:1033F00069F714C06D897E898F89988D0E9441007C
:10340000DC01CB019C8B8B8B8B899C89988B8F8764
:103410008F8598890197F1F7988B8F8780E062E01C
:1034200040E00E94C60680E090E0A0E0B0E48B8718
:103430009C87AD87BE876B857C858D859E8520E0CA
:1034400030E04AE755E40E941702DC01CB018F838C
:103450009887A987BA876F81788589859A8520E0C2
:1034600030E040E85FE30E94710388232CF481E0A0
:1034700090E09E838D833FC06F81788589859A8592
:1034800020E03FEF4FE757E40E94110318164CF578
:103490006B857C858D859E8520E030E040E251E49F
:1034A0000E941702DC01CB01BC01CD010E9441004A
:1034B000DC01CB019E838D830FC080E991E09C836A
:1034C0008B838B819C810197F1F79C838B838D810A
:1034D0009E8101979E838D838D819E81009769F7E0
:1034E00014C06F81788589859A850E944100DC012E
:1034F000CB019E838D838D819E819A83898389816F
:103500009A810197F1F79A838983E9960FB6F89427
:10351000DEBF0FBECDBFCF91DF910895DF93CF9374
:1035200000D0CDB7DEB789836A8389819A81890FFC
:103530000E941F180F900F90CF91DF910895DF9395
:10354000CF9300D00F92CDB7DEB79B838A831982C9
:103550000EC08981282F30E08A819B81FC01E20F17
:10356000F31F80810E94B01589818F5F89838981D3
:10357000282F30E08A819B81FC01E20FF31F8081BC
:10358000882339F70F900F900F90CF91DF91089516
:10359000DF93CF9300D0CDB7DEB79A83898389813B
:1035A0009A818A30910528F48981805D0E94B01546
:1035B000C8C089819A8184369105B0F489819A8145
:1035C0002AE030E0B9010E940C22CB01805D0E940C
:1035D000B01589819A812AE030E0B9010E940C225D
:1035E000805D0E94B015ADC089819A8123E0883E3C
:1035F000920730F589819A8124E630E0B9010E9472
:103600000C22CB01805D0E94B01589819A812AE04D
:1036100030E0B9010E940C22CB012AE030E0B90170
:103620000E940C22805D0E94B01589819A812AE057
:1036300030E0B9010E940C22805D0E94B01581C06B
:1036400089819A8127E280319207B0F589819A8138
:1036500028EE33E0B9010E940C22CB01805D0E946C
:10366000B01589819A8124E630E0B9010E940C22CC
:10367000CB012AE030E0B9010E940C22805D0E945B
:10368000B01589819A812AE030E0B9010E940C22AC
:10369000CB012AE030E0B9010E940C22805D0E943B
:1036A000B01589819A812AE030E0B9010E940C228C
:1036B000805D0E94B01545C089819A8120E137E282
:1036C000B9010E940C22CB01805D0E94B015898156
:1036D0009A8128EE33E0B9010E940C22CB012AE046
:1036E00030E0B9010E940C22805D0E94B0158981F2
:1036F0009A8124E630E0B9010E940C22CB012AE035
:1037000030E0B9010E940C22805D0E94B0158981D1
:103710009A812AE030E0B9010E940C22CB012AE014
:1037200030E0B9010E940C22805D0E94B0158981B1
:103730009A812AE030E0B9010E940C22805D0E944B
:10374000B0150F900F90CF91DF910895DF93CF9335
:1037500000D000D0CDB7DEB79B838A836C838C8189
:103760000E941F1819820EC08981282F30E08A819B
:103770009B81FC01E20FF31F80810E94B0158981BB
:103780008F5F89838981883078F30F900F900F9035
:103790000F90CF91DF910895DF93CF93CDB7DEB730
:1037A00082E065E040E00E94CA0582E064E040E01B
:1037B0000E94CA0582E063E040E00E94CA0582E000
:1037C00062E040E00E94CA0582E065E041E00E94BC
:1037D000C60682E064E041E00E94C60682E063E043
:1037E00041E00E94C60682E062E041E00E94C60617
:1037F00083E067E041E00E94CA0583E066E041E0C3
:103800000E94CA0583E065E041E00E94CA0583E0AA
:1038100063E041E00E94CA0583E067E041E00E9466
:10382000C60683E066E041E00E94C60683E065E0EC
:1038300041E00E94C60683E063E041E00E94C606C4
:10384000CF91DF910895DF93CF93CDB7DEB728975F
:103850000FB6F894DEBF0FBECDBF9C838B837E83F3
:103860006D8358874F831A823FC08A818130C9F1A6
:103870008A81882F90E09C012D5F3F4F81E090E08E
:1038800002C0880F991F2A95E2F7982F909583E040
:10389000692F47E10E94F608198220C08981982F7C
:1038A0009E5F82E0692F0E94AE098823A1F493E015
:1038B0008981292F281B822FEB81FC81808394E052
:1038C0008A81292F281B822FED81FE818083EF8141
:1038D000F88581E0808389818F5F89838981843045
:1038E000E8F28A818F5F8A838A81853008F4BDCFB0
:1038F00083E06FEF47E10E94F60828960FB6F89430
:10390000DEBF0FBECDBFCF91DF910895DF93CF9380
:10391000CDB7DEB780E061E00E943F08CF91DF9134
:103920000895DF93CF9300D00F92CDB7DEB7898390
:103930008981282F30E03B832A838A819B818430D0
:10394000910509F455C02A813B8125303105DCF40D
:103950008A819B818130910509F43BC02A813B819A
:10396000223031052CF48A819B81009769F15DC07A
:103970002A813B812230310589F18A819B81833004
:10398000910589F152C02A813B812730310509F424
:103990003EC08A819B81883091055CF42A813B81FD
:1039A0002530310551F18A819B818630910551F195
:1039B0003CC02A813B812830310571F18A819B818D
:1039C0008930910571F131C080E06FE30E94B50844
:1039D0002CC080E066E00E94B50827C080E06BE55F
:1039E0000E94B50822C080E06FE40E94B5081DC0A7
:1039F00080E066E60E94B50818C080E06DE60E948F
:103A0000B50813C080E06DE70E94B5080EC080E0E5
:103A100067E40E94B50809C080E06FE70E94B5081E
:103A200004C080E06FE60E94B5080F900F900F90E1
:103A3000CF91DF9108950F931F93DF93CF93CDB76D
:103A4000DEB7CB55D0400FB6F894DEBF0FBECDBF6A
:103A50000E944C12FE01E85BFF4F82E08083FE0172
:103A6000E95BFF4F81E08083CE01855B9F4F6996C4
:103A70009FAF8EAF699722E730E06B963FAF2EAFD6
:103A80006B9738E06C963FAF6C976B96EEADFFADE1
:103A90006B9700806B962EAD3FAD6B972F5F3F4FBE
:103AA0006B963FAF2EAF6B976996EEADFFAD699702
:103AB000008269962EAD3FAD69972F5F3F4F6996A3
:103AC0003FAF2EAF69976C963FAD6C9731506C96B7
:103AD0003FAF6C976C968FAD6C978823B1F6CE0193
:103AE000855B9F4F60E40E94A61B80E860E00E9417
:103AF0008E1A80E00E94B01583E063E00E94AE0958
:103B00008823D1F786E00E941F1880E10E941F18C9
:103B100080E20E94B01580E00E94B015FE01E65BD5
:103B2000FF4F84E18083FE01E75BFF4F84E18083E8
:103B3000FE01E85BFF4F8081882331F0FE01E85BE6
:103B4000FF4F8081853161F486E00E941F1880E874
:103B500065E00E948E1A80E690E00E949F1A4EC493
:103B6000FE01ED5BFF4F80E090E0A8E4B3E48083CA
:103B70009183A283B3838E01015C1F4FFE01ED5B35
:103B8000FF4F608171818281938120E030E04AE7BC
:103B900055E40E941702DC01CB01F8018083918378
:103BA000A283B383FE01FF9660817181828193813C
:103BB00020E030E040E85FE30E94710388232CF4AA
:103BC00081E090E09EAF8DAF46C0FE01FF96608120
:103BD00071818281938120E03FEF4FE757E40E949B
:103BE0001103181664F5FE01ED5BFF4F60817181D2
:103BF0008281938120E030E040E251E40E9417028C
:103C0000DC01CB01BC01CD010E944100DC01CB01F4
:103C10009EAF8DAF0FC080E991E09CAF8BAF8BADB5
:103C20009CAD0197F1F79CAF8BAF8DAD9EAD019729
:103C30009EAF8DAF8DAD9EAD009769F716C0FE01AA
:103C4000FF9660817181828193810E944100DC0135
:103C5000CB019EAF8DAF8DAD9EAD9AAF89AF89ADD3
:103C60009AAD0197F1F79AAF89AF83E063E00E94C4
:103C7000AE09882309F07BC086E00E941F18FE0170
:103C8000E65BFF4F84E1808380E090E0A8E4B3E44A
:103C90008DAB9EABAFABB8AF6DA97EA98FA998AD28
:103CA00020E030E04AE755E40E941702DC01CB0136
:103CB00089AB9AABABABBCAB69A97AA98BA99CA920
:103CC00020E030E040E85FE30E94710388232CF499
:103CD00081E090E098AB8FA73FC069A97AA98BA932
:103CE0009CA920E03FEF4FE757E40E94110318160C
:103CF0004CF56DA97EA98FA998AD20E030E040E297
:103D000051E40E941702DC01CB01BC01CD010E94ED
:103D10004100DC01CB0198AB8FA70FC080E991E097
:103D20009EA78DA78DA59EA50197F1F79EA78DA7AC
:103D30008FA598A9019798AB8FA78FA598A90097F1
:103D400069F7C6C269A97AA98BA99CA90E944100FA
:103D5000DC01CB0198AB8FA78FA598A99CA78BA757
:103D60008BA59CA50197F1F79CA78BA7B1C283E017
:103D700067E00E94AE09882309F07BC084E00E94BE
:103D80001F18FE01E65BFF4F80E1808380E090E03A
:103D9000A8E4B3E48FA398A7A9A7BAA76FA178A5B1
:103DA00089A59AA520E030E04AE755E40E94170271
:103DB000DC01CB018BA39CA3ADA3BEA36BA17CA113
:103DC0008DA19EA120E030E040E85FE30E947103F6
:103DD00088232CF481E090E09AA389A33FC06BA1D3
:103DE0007CA18DA19EA120E03FEF4FE757E40E9408
:103DF000110318164CF56FA178A589A59AA520E0A6
:103E000030E040E251E40E941702DC01CB01BC012A
:103E1000CD010E944100DC01CB019AA389A30FC010
:103E200080E991E098A38F8F8F8D98A10197F1F78A
:103E300098A38F8F89A19AA101979AA389A389A199
:103E40009AA1009769F744C26BA17CA18DA19EA1A4
:103E50000E944100DC01CB019AA389A389A19AA108
:103E60009E8F8D8F8D8D9E8D0197F1F79E8F8D8FFB
:103E70002FC283E065E00E94AE09882309F011C1DA
:103E8000FE01E65BFF4F8081843139F480E10E94BE
:103E90001F1880E20E94B0150CC0FE01E65BFF4FC8
:103EA0008081803131F484E10E941F1880E20E94F9
:103EB000B015FE01E95BFF4F8081813061F486E03F
:103EC0000E941F1880E865E00E948E1A80E690E04C
:103ED0000E949F1A93C2FE01E95BFF4F8081282F49
:103EE00030E067963FAF2EAF679767968EAD9FAD78
:103EF00067978330910541F16796EEADFFAD679707
:103F0000E430F105D1F167962EAD3FAD67972230D1
:103F1000310509F04AC0FE01E65BFF4F8081803128
:103F200059F4FE01E85BFF4F8081982F925080E8A2
:103F3000692F0E948E1A39C0FE01E85BFF4F80E8AE
:103F400060810E948E1A31C0FE01E65BFF4F8081C6
:103F5000803159F4FE01E85BFF4F8081982F925029
:103F600080EC692F0E948E1A20C0FE01E85BFF4F93
:103F700080EC60810E948E1A18C0FE01E65BFF4F44
:103F80008081803159F4FE01E85BFF4F8081982FDA
:103F9000925084E9692F0E948E1A07C0FE01E85BE7
:103FA000FF4F84E960810E948E1ADE01A95BBF4F3A
:103FB000FE01E95BFF4F808181508C9380E090E0AF
:103FC000A8E4B3E4898F9A8FAB8FBC8F698D7A8D0B
:103FD0008B8D9C8D20E030E04AE755E40E9417026B
:103FE000DC01CB018D8B9E8BAF8BB88F6D897E8969
:103FF0008F89988D20E030E040E85FE30E947103F4
:1040000088232CF481E090E09C8B8B8B3FC06D89E2
:104010007E898F89988D20E03FEF4FE757E40E941B
:10402000110318164CF5698D7A8D8B8D9C8D20E0CF
:1040300030E040E251E40E941702DC01CB01BC01F8
:10404000CD010E944100DC01CB019C8B8B8B0FC00A
:1040500080E991E09A8B898B89899A890197F1F798
:104060009A8B898B8B899C8901979C8B8B8B8B89F5
:104070009C89009769F72CC16D897E898F89988DFD
:104080000E944100DC01CB019C8B8B8B8B899C892E
:10409000988B8F878F8598890197F1F7988B8F87F9
:1040A00017C183E066E00E94AE09882309F010C1C1
:1040B000FE01E65BFF4F8081843139F480E10E948C
:1040C0001F1880E20E94B0150CC0FE01E65BFF4F96
:1040D0008081803131F484E10E941F1880E20E94C7
:1040E000B015FE01E95BFF4F8081843061F486E00A
:1040F0000E941F1880E865E00E948E1A80E690E01A
:104100000E949F1A7BC1FE01E95BFF4F8081E82F6F
:10411000F0E06596FFAFEEAF659765962EAD3FADCB
:1041200065972230310541F165968EAD9FAD65975B
:1041300083309105D1F16596EEADFFAD6597E13025
:10414000F10509F04AC0FE01E65BFF4F8081803136
:1041500059F4FE01E85BFF4F8081982F925080EC6C
:10416000692F0E948E1A39C0FE01E85BFF4F80EC78
:1041700060810E948E1A31C0FE01E65BFF4F808194
:10418000803159F4FE01E85BFF4F8081982F9250F7
:1041900084E9692F0E948E1A20C0FE01E85BFF4F60
:1041A00084E960810E948E1A18C0FE01E65BFF4F11
:1041B0008081803159F4FE01E85BFF4F8081982FA8
:1041C000925084ED692F0E948E1A07C0FE01E85BB1
:1041D000FF4F84ED60810E948E1ADE01A95BBF4F04
:1041E000FE01E95BFF4F80818F5F8C9380E090E060
:1041F000A8E4B3E48B879C87AD87BE876B857C85FD
:104200008D859E8520E030E04AE755E40E94170244
:10421000DC01CB018F839887A987BA876F81788566
:1042200089859A8520E030E040E85FE30E947103D1
:1042300088232CF481E090E09E838D833FC06F81C2
:10424000788589859A8520E03FEF4FE757E40E9403
:10425000110318164CF56B857C858D859E8520E0B5
:1042600030E040E251E40E941702DC01CB01BC01C6
:10427000CD010E944100DC01CB019E838D830FC0E4
:1042800080E991E09C838B838B819C810197F1F77E
:104290009C838B838D819E8101979E838D838D81ED
:1042A0009E81009769F714C06F81788589859A850A
:1042B0000E944100DC01CB019E838D838D819E8114
:1042C0009A83898389819A810197F1F79A838983F7
:1042D000FE01E65BFF4F8081803101F5FE01E75B67
:1042E000FF4F80818031D1F4DE01A85BBF4FFE011A
:1042F000E85BFF4F808181508C9384E10E941F18FE
:1043000080E20E94B015FE01E85BFF4F80818823A8
:1043100009F40ECC80E00E94B0150ACCFE01E65BE9
:10432000FF4F80818031F1F4FE01E75BFF4F808118
:104330008431C1F480E10E941F1880E20E94B01510
:1043400080E00E94B015FE01E75BFF4F80E18083B3
:10435000DE01A85BBF4FFE01E85BFF4F808181500B
:104360008C93E6CBFE01E65BFF4F8081843101F543
:10437000FE01E75BFF4F80818431D1F4DE01A85B51
:10438000BF4FFE01E85BFF4F80818F5F8C9380E120
:104390000E941F1880E20E94B015FE01E85BFF4FEB
:1043A0008081853108F0C4CB80E00E94B015C0CB7D
:1043B000FE01E65BFF4F8081843109F0B9CBFE013D
:1043C000E75BFF4F8081803109F0B2CB84E10E942E
:1043D0001F1880E20E94B01580E00E94B015FE0117
:1043E000E75BFF4F84E18083DE01A85BBF4FFE01E6
:1043F000E85BFF4F80818F5F8C939ACB80E090E0E9
:10440000C55ADF4F0FB6F894DEBF0FBECDBFCF91B8
:10441000DF911F910F910895AA1BBB1B51E107C0AB
:10442000AA1FBB1FA617B70710F0A61BB70B881F44
:10443000991F5A95A9F780959095BC01CD010895D3
:104440002F923F924F925F926F927F928F929F92A4
:10445000AF92BF92CF92DF92EF92FF920F931F9392
:10446000CF93DF93CDB7DEB7CA1BDB0B0FB6F89443
:10447000DEBF0FBECDBF09942A88398848885F8483
:104480006E847D848C849B84AA84B984C884DF80F4
:10449000EE80FD800C811B81AA81B981CE0FD11DD8
:1044A0000FB6F894DEBF0FBECDBFED010895F894AE
:0244B000FFCF3C
:1044B20047616D65204F76657200000000000000C4
:0A44C200000000000E1F1F1F0E0077
:00000001FF
